{
  "contractName": "FlashLoanReceiver",
  "abi": [
    {
      "inputs": [
        {
          "internalType": "contract LendingPoolAddressesProvider",
          "name": "_provider",
          "type": "address"
        }
      ],
      "stateMutability": "nonpayable",
      "type": "constructor"
    },
    {
      "anonymous": false,
      "inputs": [
        {
          "indexed": false,
          "internalType": "address",
          "name": "_reserve",
          "type": "address"
        },
        {
          "indexed": false,
          "internalType": "uint256",
          "name": "amount",
          "type": "uint256"
        },
        {
          "indexed": false,
          "internalType": "uint256",
          "name": "value",
          "type": "uint256"
        }
      ],
      "name": "borrowMade",
      "type": "event"
    },
    {
      "inputs": [],
      "name": "ADDRESSES_PROVIDER",
      "outputs": [
        {
          "internalType": "contract ILendingPoolAddressesProvider",
          "name": "",
          "type": "address"
        }
      ],
      "stateMutability": "view",
      "type": "function",
      "constant": true
    },
    {
      "inputs": [],
      "name": "LENDING_POOL",
      "outputs": [
        {
          "internalType": "contract ILendingPool",
          "name": "",
          "type": "address"
        }
      ],
      "stateMutability": "view",
      "type": "function",
      "constant": true
    },
    {
      "inputs": [
        {
          "internalType": "address[]",
          "name": "assets",
          "type": "address[]"
        },
        {
          "internalType": "uint256[]",
          "name": "amounts",
          "type": "uint256[]"
        },
        {
          "internalType": "uint256[]",
          "name": "premiums",
          "type": "uint256[]"
        },
        {
          "internalType": "address",
          "name": "initiator",
          "type": "address"
        },
        {
          "internalType": "bytes",
          "name": "params",
          "type": "bytes"
        }
      ],
      "name": "executeOperation",
      "outputs": [
        {
          "internalType": "bool",
          "name": "",
          "type": "bool"
        }
      ],
      "stateMutability": "nonpayable",
      "type": "function"
    },
    {
      "inputs": [],
      "name": "myFlashLoanCall",
      "outputs": [],
      "stateMutability": "nonpayable",
      "type": "function"
    }
  ],
  "bytecode": "0x60c060405234801561001057600080fd5b5060405161085f38038061085f8339818101604052602081101561003357600080fd5b50516001600160601b0319606082901b1660805260408051630261bf8b60e01b8152905182916001600160a01b03831691630261bf8b91600480820192602092909190829003018186803b15801561008a57600080fd5b505afa15801561009e573d6000803e3d6000fd5b505050506040513d60208110156100b457600080fd5b5051606081811b6001600160601b03191660a052608051901c92506001600160a01b0316905061075e6101016000398061031852806103c652806104e0525080610208525061075e6000f3fe608060405234801561001057600080fd5b506004361061004c5760003560e01c80630542975c14610051578063920f5c8414610075578063b4dcfc77146101f4578063f03b5329146101fc575b600080fd5b610059610206565b604080516001600160a01b039092168252519081900360200190f35b6101e0600480360360a081101561008b57600080fd5b810190602081018135600160201b8111156100a557600080fd5b8201836020820111156100b757600080fd5b803590602001918460208302840111600160201b831117156100d857600080fd5b919390929091602081019035600160201b8111156100f557600080fd5b82018360208201111561010757600080fd5b803590602001918460208302840111600160201b8311171561012857600080fd5b919390929091602081019035600160201b81111561014557600080fd5b82018360208201111561015757600080fd5b803590602001918460208302840111600160201b8311171561017857600080fd5b919390926001600160a01b0383351692604081019060200135600160201b8111156101a257600080fd5b8201836020820111156101b457600080fd5b803590602001918460018302840111600160201b831117156101d557600080fd5b50909250905061022a565b604080519115158252519081900360200190f35b6100596103c4565b6102046103e8565b005b7f000000000000000000000000000000000000000000000000000000000000000081565b60007fcd8f01cf11df8ac6e385851ab2495f5370eff19deb3c99a29b542b49d32ba0ba8a8a600081811061025a57fe5b905060200201356001600160a01b03168989600081811061027757fe5b604080516001600160a01b0390951685526020918202939093013590840152504782820152519081900360600190a160005b898110156103b35760006102ea8888848181106102c257fe5b905060200201358b8b858181106102d557fe5b905060200201356106c790919063ffffffff16565b90508b8b838181106102f857fe5b905060200201356001600160a01b03166001600160a01b031663095ea7b37f0000000000000000000000000000000000000000000000000000000000000000836040518363ffffffff1660e01b815260040180836001600160a01b0316815260200182815260200192505050602060405180830381600087803b15801561037e57600080fd5b505af1158015610392573d6000803e3d6000fd5b505050506040513d60208110156103a857600080fd5b5050506001016102a9565b5060019a9950505050505050505050565b7f000000000000000000000000000000000000000000000000000000000000000081565b6040805160028082526060808301845230939092919060208301908036833701905050905073ff795577d9ac8bd7d90ee22b6c1703490b6512fd8160008151811061042f57fe5b6001600160a01b039290921660209283029190910190910152604080516002808252606082810190935281602001602082028036833701905050905060648160008151811061047a57fe5b602090810291909101015260408051600280825260608281019093528160200160208202803683370190505090506000816000815181106104b757fe5b6020026020010181815250506000309050606060405180602001604052806000815250905060007f00000000000000000000000000000000000000000000000000000000000000006001600160a01b031663ab9c4b5d888888888888886040518863ffffffff1660e01b815260040180886001600160a01b03168152602001806020018060200180602001876001600160a01b03168152602001806020018661ffff16815260200185810385528b818151815260200191508051906020019060200280838360005b8381101561059757818101518382015260200161057f565b5050505090500185810384528a818151815260200191508051906020019060200280838360005b838110156105d65781810151838201526020016105be565b50505050905001858103835289818151815260200191508051906020019060200280838360005b838110156106155781810151838201526020016105fd565b50505050905001858103825287818151815260200191508051906020019080838360005b83811015610651578181015183820152602001610639565b50505050905090810190601f16801561067e5780820380516001836020036101000a031916815260200191505b509b505050505050505050505050600060405180830381600087803b1580156106a657600080fd5b505af11580156106ba573d6000803e3d6000fd5b5050505050505050505050565b600082820183811015610721576040805162461bcd60e51b815260206004820152601b60248201527f536166654d6174683a206164646974696f6e206f766572666c6f770000000000604482015290519081900360640190fd5b939250505056fea2646970667358221220aec3a12faedf0b81ec3a6d2ba8f2fd8cfb3d3c34d4c1e0d97a3391e59c6c495064736f6c634300060c0033",
  "immutableReferences": {
    "5186": [
      {
        "length": 32,
        "start": 520
      }
    ],
    "5189": [
      {
        "length": 32,
        "start": 792
      },
      {
        "length": 32,
        "start": 966
      },
      {
        "length": 32,
        "start": 1248
      }
    ]
  },
  "source": "pragma solidity 0.6.12;\n\nimport \"../../aave/mocks/tokens/MintableERC20.sol\";\nimport \"../../aave/flashloan/base/FlashLoanReceiverBase.sol\";\nimport \"../../aave/protocol/configuration/LendingPoolAddressesProvider.sol\";\n\n\ncontract FlashLoanReceiver is FlashLoanReceiverBase {\n    using SafeMath for uint256;\n\n    event borrowMade(address _reserve, uint256 amount , uint256 value);\n\n    constructor(LendingPoolAddressesProvider _provider) FlashLoanReceiverBase(_provider) public {}\n\n    function executeOperation(\n        address[] calldata assets,\n        uint256[] calldata amounts,\n        uint256[] calldata premiums,\n        address initiator,\n        bytes calldata params\n    ) external override returns (bool) {\n\n        //\n        // This contract now has the funds requested.\n        // Your logic goes here.\n        //\n        \n        // At the end of your logic above, this contract owes\n        // the flashloaned amounts + premiums.\n        // Therefore ensure your contract has enough to repay\n        // these amounts.\n        emit borrowMade(assets[0], amounts[0] , address(this).balance);\n        \n        // Approve the LendingPool contract allowance to *pull* the owed amount\n        for (uint i = 0; i < assets.length; i++) {\n            uint amountOwing = amounts[i].add(premiums[i]);\n            IERC20(assets[i]).approve(address(LENDING_POOL), amountOwing);\n        }\n        \n        return true;\n    }\n\n    function myFlashLoanCall() public {\n        address receiverAddress = address(this);\n\n        address[] memory assets = new address[](2);\n        assets[0] = 0xFf795577d9AC8bD7D90Ee22b6C1703490b6512FD; // Kovan DAI\n\n        uint256[] memory amounts = new uint256[](2);\n        amounts[0] = 100;\n\n        // 0 = no debt, 1 = stable, 2 = variable\n        uint256[] memory modes = new uint256[](2);\n        modes[0] = 0;\n\n        address onBehalfOf = address(this);\n        bytes memory params = \"\";\n        uint16 referralCode = 0;\n\n        LENDING_POOL.flashLoan(\n            receiverAddress,\n            assets,\n            amounts,\n            modes,\n            onBehalfOf,\n            params,\n            referralCode\n        );\n    }\n}",
  "sourcePath": "/home/conjohn/code/liquiditybot/contracts/deployableContracts/flashloans/FlashLoanReceiver.sol",
  "compiler": {
    "name": "solc",
    "version": "0.6.12+commit.27d51765.Emscripten.clang"
  },
  "schemaVersion": "3.3.3",
  "updatedAt": "2021-01-20T16:40:01.501Z",
  "networkType": "ethereum",
  "devdoc": {
    "kind": "dev",
    "methods": {},
    "version": 1
  },
  "userdoc": {
    "kind": "user",
    "methods": {},
    "version": 1
  }
}