{
  "contractName": "LendingPoolConfigurator",
  "abi": [
    {
      "anonymous": false,
      "inputs": [
        {
          "indexed": true,
          "internalType": "address",
          "name": "asset",
          "type": "address"
        },
        {
          "indexed": true,
          "internalType": "address",
          "name": "proxy",
          "type": "address"
        },
        {
          "indexed": true,
          "internalType": "address",
          "name": "implementation",
          "type": "address"
        }
      ],
      "name": "ATokenUpgraded",
      "type": "event"
    },
    {
      "anonymous": false,
      "inputs": [
        {
          "indexed": true,
          "internalType": "address",
          "name": "asset",
          "type": "address"
        }
      ],
      "name": "BorrowingDisabledOnReserve",
      "type": "event"
    },
    {
      "anonymous": false,
      "inputs": [
        {
          "indexed": true,
          "internalType": "address",
          "name": "asset",
          "type": "address"
        },
        {
          "indexed": false,
          "internalType": "bool",
          "name": "stableRateEnabled",
          "type": "bool"
        }
      ],
      "name": "BorrowingEnabledOnReserve",
      "type": "event"
    },
    {
      "anonymous": false,
      "inputs": [
        {
          "indexed": true,
          "internalType": "address",
          "name": "asset",
          "type": "address"
        },
        {
          "indexed": false,
          "internalType": "uint256",
          "name": "ltv",
          "type": "uint256"
        },
        {
          "indexed": false,
          "internalType": "uint256",
          "name": "liquidationThreshold",
          "type": "uint256"
        },
        {
          "indexed": false,
          "internalType": "uint256",
          "name": "liquidationBonus",
          "type": "uint256"
        }
      ],
      "name": "CollateralConfigurationChanged",
      "type": "event"
    },
    {
      "anonymous": false,
      "inputs": [
        {
          "indexed": true,
          "internalType": "address",
          "name": "asset",
          "type": "address"
        }
      ],
      "name": "ReserveActivated",
      "type": "event"
    },
    {
      "anonymous": false,
      "inputs": [
        {
          "indexed": true,
          "internalType": "address",
          "name": "asset",
          "type": "address"
        }
      ],
      "name": "ReserveDeactivated",
      "type": "event"
    },
    {
      "anonymous": false,
      "inputs": [
        {
          "indexed": true,
          "internalType": "address",
          "name": "asset",
          "type": "address"
        },
        {
          "indexed": false,
          "internalType": "uint256",
          "name": "decimals",
          "type": "uint256"
        }
      ],
      "name": "ReserveDecimalsChanged",
      "type": "event"
    },
    {
      "anonymous": false,
      "inputs": [
        {
          "indexed": true,
          "internalType": "address",
          "name": "asset",
          "type": "address"
        },
        {
          "indexed": false,
          "internalType": "uint256",
          "name": "factor",
          "type": "uint256"
        }
      ],
      "name": "ReserveFactorChanged",
      "type": "event"
    },
    {
      "anonymous": false,
      "inputs": [
        {
          "indexed": true,
          "internalType": "address",
          "name": "asset",
          "type": "address"
        }
      ],
      "name": "ReserveFrozen",
      "type": "event"
    },
    {
      "anonymous": false,
      "inputs": [
        {
          "indexed": true,
          "internalType": "address",
          "name": "asset",
          "type": "address"
        },
        {
          "indexed": true,
          "internalType": "address",
          "name": "aToken",
          "type": "address"
        },
        {
          "indexed": false,
          "internalType": "address",
          "name": "stableDebtToken",
          "type": "address"
        },
        {
          "indexed": false,
          "internalType": "address",
          "name": "variableDebtToken",
          "type": "address"
        },
        {
          "indexed": false,
          "internalType": "address",
          "name": "interestRateStrategyAddress",
          "type": "address"
        }
      ],
      "name": "ReserveInitialized",
      "type": "event"
    },
    {
      "anonymous": false,
      "inputs": [
        {
          "indexed": true,
          "internalType": "address",
          "name": "asset",
          "type": "address"
        },
        {
          "indexed": false,
          "internalType": "address",
          "name": "strategy",
          "type": "address"
        }
      ],
      "name": "ReserveInterestRateStrategyChanged",
      "type": "event"
    },
    {
      "anonymous": false,
      "inputs": [
        {
          "indexed": true,
          "internalType": "address",
          "name": "asset",
          "type": "address"
        }
      ],
      "name": "ReserveUnfrozen",
      "type": "event"
    },
    {
      "anonymous": false,
      "inputs": [
        {
          "indexed": true,
          "internalType": "address",
          "name": "asset",
          "type": "address"
        },
        {
          "indexed": true,
          "internalType": "address",
          "name": "proxy",
          "type": "address"
        },
        {
          "indexed": true,
          "internalType": "address",
          "name": "implementation",
          "type": "address"
        }
      ],
      "name": "StableDebtTokenUpgraded",
      "type": "event"
    },
    {
      "anonymous": false,
      "inputs": [
        {
          "indexed": true,
          "internalType": "address",
          "name": "asset",
          "type": "address"
        }
      ],
      "name": "StableRateDisabledOnReserve",
      "type": "event"
    },
    {
      "anonymous": false,
      "inputs": [
        {
          "indexed": true,
          "internalType": "address",
          "name": "asset",
          "type": "address"
        }
      ],
      "name": "StableRateEnabledOnReserve",
      "type": "event"
    },
    {
      "anonymous": false,
      "inputs": [
        {
          "indexed": true,
          "internalType": "address",
          "name": "asset",
          "type": "address"
        },
        {
          "indexed": true,
          "internalType": "address",
          "name": "proxy",
          "type": "address"
        },
        {
          "indexed": true,
          "internalType": "address",
          "name": "implementation",
          "type": "address"
        }
      ],
      "name": "VariableDebtTokenUpgraded",
      "type": "event"
    },
    {
      "inputs": [
        {
          "internalType": "contract ILendingPoolAddressesProvider",
          "name": "provider",
          "type": "address"
        }
      ],
      "name": "initialize",
      "outputs": [],
      "stateMutability": "nonpayable",
      "type": "function"
    },
    {
      "inputs": [
        {
          "internalType": "address",
          "name": "aTokenImpl",
          "type": "address"
        },
        {
          "internalType": "address",
          "name": "stableDebtTokenImpl",
          "type": "address"
        },
        {
          "internalType": "address",
          "name": "variableDebtTokenImpl",
          "type": "address"
        },
        {
          "internalType": "uint8",
          "name": "underlyingAssetDecimals",
          "type": "uint8"
        },
        {
          "internalType": "address",
          "name": "interestRateStrategyAddress",
          "type": "address"
        }
      ],
      "name": "initReserve",
      "outputs": [],
      "stateMutability": "nonpayable",
      "type": "function"
    },
    {
      "inputs": [
        {
          "internalType": "address",
          "name": "asset",
          "type": "address"
        },
        {
          "internalType": "address",
          "name": "implementation",
          "type": "address"
        }
      ],
      "name": "updateAToken",
      "outputs": [],
      "stateMutability": "nonpayable",
      "type": "function"
    },
    {
      "inputs": [
        {
          "internalType": "address",
          "name": "asset",
          "type": "address"
        },
        {
          "internalType": "address",
          "name": "implementation",
          "type": "address"
        }
      ],
      "name": "updateStableDebtToken",
      "outputs": [],
      "stateMutability": "nonpayable",
      "type": "function"
    },
    {
      "inputs": [
        {
          "internalType": "address",
          "name": "asset",
          "type": "address"
        },
        {
          "internalType": "address",
          "name": "implementation",
          "type": "address"
        }
      ],
      "name": "updateVariableDebtToken",
      "outputs": [],
      "stateMutability": "nonpayable",
      "type": "function"
    },
    {
      "inputs": [
        {
          "internalType": "address",
          "name": "asset",
          "type": "address"
        },
        {
          "internalType": "bool",
          "name": "stableBorrowRateEnabled",
          "type": "bool"
        }
      ],
      "name": "enableBorrowingOnReserve",
      "outputs": [],
      "stateMutability": "nonpayable",
      "type": "function"
    },
    {
      "inputs": [
        {
          "internalType": "address",
          "name": "asset",
          "type": "address"
        }
      ],
      "name": "disableBorrowingOnReserve",
      "outputs": [],
      "stateMutability": "nonpayable",
      "type": "function"
    },
    {
      "inputs": [
        {
          "internalType": "address",
          "name": "asset",
          "type": "address"
        },
        {
          "internalType": "uint256",
          "name": "ltv",
          "type": "uint256"
        },
        {
          "internalType": "uint256",
          "name": "liquidationThreshold",
          "type": "uint256"
        },
        {
          "internalType": "uint256",
          "name": "liquidationBonus",
          "type": "uint256"
        }
      ],
      "name": "configureReserveAsCollateral",
      "outputs": [],
      "stateMutability": "nonpayable",
      "type": "function"
    },
    {
      "inputs": [
        {
          "internalType": "address",
          "name": "asset",
          "type": "address"
        }
      ],
      "name": "enableReserveStableRate",
      "outputs": [],
      "stateMutability": "nonpayable",
      "type": "function"
    },
    {
      "inputs": [
        {
          "internalType": "address",
          "name": "asset",
          "type": "address"
        }
      ],
      "name": "disableReserveStableRate",
      "outputs": [],
      "stateMutability": "nonpayable",
      "type": "function"
    },
    {
      "inputs": [
        {
          "internalType": "address",
          "name": "asset",
          "type": "address"
        }
      ],
      "name": "activateReserve",
      "outputs": [],
      "stateMutability": "nonpayable",
      "type": "function"
    },
    {
      "inputs": [
        {
          "internalType": "address",
          "name": "asset",
          "type": "address"
        }
      ],
      "name": "deactivateReserve",
      "outputs": [],
      "stateMutability": "nonpayable",
      "type": "function"
    },
    {
      "inputs": [
        {
          "internalType": "address",
          "name": "asset",
          "type": "address"
        }
      ],
      "name": "freezeReserve",
      "outputs": [],
      "stateMutability": "nonpayable",
      "type": "function"
    },
    {
      "inputs": [
        {
          "internalType": "address",
          "name": "asset",
          "type": "address"
        }
      ],
      "name": "unfreezeReserve",
      "outputs": [],
      "stateMutability": "nonpayable",
      "type": "function"
    },
    {
      "inputs": [
        {
          "internalType": "address",
          "name": "asset",
          "type": "address"
        },
        {
          "internalType": "uint256",
          "name": "reserveFactor",
          "type": "uint256"
        }
      ],
      "name": "setReserveFactor",
      "outputs": [],
      "stateMutability": "nonpayable",
      "type": "function"
    },
    {
      "inputs": [
        {
          "internalType": "address",
          "name": "asset",
          "type": "address"
        },
        {
          "internalType": "address",
          "name": "rateStrategyAddress",
          "type": "address"
        }
      ],
      "name": "setReserveInterestRateStrategyAddress",
      "outputs": [],
      "stateMutability": "nonpayable",
      "type": "function"
    },
    {
      "inputs": [
        {
          "internalType": "bool",
          "name": "val",
          "type": "bool"
        }
      ],
      "name": "setPoolPause",
      "outputs": [],
      "stateMutability": "nonpayable",
      "type": "function"
    }
  ],
  "bytecode": "0x60806040526000805534801561001457600080fd5b50613d54806100246000396000f3fe608060405234801561001057600080fd5b506004361061010b5760003560e01c80637c4e560b116100a2578063bf34418311610071578063bf344183146101f6578063c4d66de814610209578063eede87c11461021c578063ef1f93731461022f578063f53a2515146102425761010b565b80637c4e560b146101aa578063a8dc0f45146101bd578063aa65b66e146101d0578063b75d6f34146101e35761010b565b80634d978258116100de5780634d9782581461015e5780636e801a71146101715780637641f3d9146101845780637aca76eb146101975761010b565b80631d2118f9146101105780633e72a4541461012557806345fe7946146101385780634b4e67531461014b575b600080fd5b61012361011e366004613062565b610255565b005b610123610133366004613023565b6103c7565b610123610146366004613062565b6105c2565b61012361015936600461313b565b61076f565b61012361016c366004613062565b61096e565b61012361017f36600461309a565b610b1d565b6101236101923660046131a0565b6111fe565b6101236101a5366004613023565b611323565b6101236101b8366004613166565b611515565b6101236101cb366004613023565b61183e565b6101236101de366004613062565b611a30565b6101236101f1366004613023565b611bdf565b610123610204366004613023565b611dd1565b610123610217366004613023565b611fc3565b61012361022a36600461310a565b6120f5565b61012361023d366004613023565b6122f2565b610123610250366004613023565b6124e4565b603454604080516315d9b46f60e31b8152905133926001600160a01b03169163aecda378916004808301926020929190829003018186803b15801561029957600080fd5b505afa1580156102ad573d6000803e3d6000fd5b505050506040513d601f19601f820116820180604052508101906102d19190613046565b6001600160a01b03161460405180604001604052806002815260200161333360f01b8152509061031d5760405162461bcd60e51b81526004016103149190613479565b60405180910390fd5b50603554604051631d2118f960e01b81526001600160a01b0390911690631d2118f99061035090859085906004016133ba565b600060405180830381600087803b15801561036a57600080fd5b505af115801561037e573d6000803e3d6000fd5b50505050816001600160a01b03167f5644b64ebb0ce18c4032248ca52f58355469092ff072866c3dcd8640e817d6a5826040516103bb91906133a6565b60405180910390a25050565b603454604080516315d9b46f60e31b8152905133926001600160a01b03169163aecda378916004808301926020929190829003018186803b15801561040b57600080fd5b505afa15801561041f573d6000803e3d6000fd5b505050506040513d601f19601f820116820180604052508101906104439190613046565b6001600160a01b03161460405180604001604052806002815260200161333360f01b815250906104865760405162461bcd60e51b81526004016103149190613479565b50610490816126d6565b610498612f31565b60355460405163c44b11f760e01b81526001600160a01b039091169063c44b11f7906104c89085906004016133a6565b60206040518083038186803b1580156104e057600080fd5b505afa1580156104f4573d6000803e3d6000fd5b505050506040513d601f19601f82011682018060405250810190610518919061324c565b905061052581600061283d565b6035548151604051635c69493b60e11b81526001600160a01b039092169163b8d292769161055891869190600401613455565b600060405180830381600087803b15801561057257600080fd5b505af1158015610586573d6000803e3d6000fd5b50506040516001600160a01b03851692507f6f60cf8bd0f218cabe1ea3150bd07b0b758c35c4cfdf7138017a283e65564d5e9150600090a25050565b603454604080516315d9b46f60e31b8152905133926001600160a01b03169163aecda378916004808301926020929190829003018186803b15801561060657600080fd5b505afa15801561061a573d6000803e3d6000fd5b505050506040513d601f19601f8201168201806040525081019061063e9190613046565b6001600160a01b03161460405180604001604052806002815260200161333360f01b815250906106815760405162461bcd60e51b81526004016103149190613479565b5061068a612f44565b6035546040516335ea6a7560e01b81526001600160a01b03909116906335ea6a75906106ba9086906004016133a6565b6101806040518083038186803b1580156106d357600080fd5b505afa1580156106e7573d6000803e3d6000fd5b505050506040513d601f19601f8201168201806040525081019061070b9190613267565b905061071c838260e001518461286b565b816001600160a01b03168160e001516001600160a01b0316846001600160a01b03167fa76f65411ec66a7fb6bc467432eb14767900449ae4469fa295e4441fe5e1cb7360405160405180910390a4505050565b603454604080516315d9b46f60e31b8152905133926001600160a01b03169163aecda378916004808301926020929190829003018186803b1580156107b357600080fd5b505afa1580156107c7573d6000803e3d6000fd5b505050506040513d601f19601f820116820180604052508101906107eb9190613046565b6001600160a01b03161460405180604001604052806002815260200161333360f01b8152509061082e5760405162461bcd60e51b81526004016103149190613479565b50610837612f31565b60355460405163c44b11f760e01b81526001600160a01b039091169063c44b11f7906108679086906004016133a6565b60206040518083038186803b15801561087f57600080fd5b505afa158015610893573d6000803e3d6000fd5b505050506040513d601f19601f820116820180604052508101906108b7919061324c565b90506108c38183612a9a565b6035548151604051635c69493b60e11b81526001600160a01b039092169163b8d29276916108f691879190600401613455565b600060405180830381600087803b15801561091057600080fd5b505af1158015610924573d6000803e3d6000fd5b50505050826001600160a01b03167f2694ccb0b585b6a54b8d8b4a47aa874b05c257b43d34e98aee50838be00d34058360405161096191906134da565b60405180910390a2505050565b603454604080516315d9b46f60e31b8152905133926001600160a01b03169163aecda378916004808301926020929190829003018186803b1580156109b257600080fd5b505afa1580156109c6573d6000803e3d6000fd5b505050506040513d601f19601f820116820180604052508101906109ea9190613046565b6001600160a01b03161460405180604001604052806002815260200161333360f01b81525090610a2d5760405162461bcd60e51b81526004016103149190613479565b50610a36612f44565b6035546040516335ea6a7560e01b81526001600160a01b03909116906335ea6a7590610a669086906004016133a6565b6101806040518083038186803b158015610a7f57600080fd5b505afa158015610a93573d6000803e3d6000fd5b505050506040513d601f19601f82011682018060405250810190610ab79190613267565b9050610ac9838261012001518461286b565b816001600160a01b03168161012001516001600160a01b0316846001600160a01b03167f9439658a562a5c46b1173589df89cf001483d685bad28aedaff4a88656292d8160405160405180910390a4505050565b603454604080516315d9b46f60e31b8152905133926001600160a01b03169163aecda378916004808301926020929190829003018186803b158015610b6157600080fd5b505afa158015610b75573d6000803e3d6000fd5b505050506040513d601f19601f82011682018060405250810190610b999190613046565b6001600160a01b03161460405180604001604052806002815260200161333360f01b81525090610bdc5760405162461bcd60e51b81526004016103149190613479565b506000856001600160a01b031663b16a19de6040518163ffffffff1660e01b815260040160206040518083038186803b158015610c1857600080fd5b505afa158015610c2c573d6000803e3d6000fd5b505050506040513d601f19601f82011682018060405250810190610c509190613046565b9050856001600160a01b0316637535d2466040518163ffffffff1660e01b815260040160206040518083038186803b158015610c8b57600080fd5b505afa158015610c9f573d6000803e3d6000fd5b505050506040513d601f19601f82011682018060405250810190610cc39190613046565b603554604080518082019091526002815261333560f01b6020820152916001600160a01b03918216911614610d0b5760405162461bcd60e51b81526004016103149190613479565b50846001600160a01b0316637535d2466040518163ffffffff1660e01b815260040160206040518083038186803b158015610d4557600080fd5b505afa158015610d59573d6000803e3d6000fd5b505050506040513d601f19601f82011682018060405250810190610d7d9190613046565b603554604080518082019091526002815261199b60f11b6020820152916001600160a01b03918216911614610dc55760405162461bcd60e51b81526004016103149190613479565b50836001600160a01b0316637535d2466040518163ffffffff1660e01b815260040160206040518083038186803b158015610dff57600080fd5b505afa158015610e13573d6000803e3d6000fd5b505050506040513d601f19601f82011682018060405250810190610e379190613046565b603554604080518082019091526002815261333760f01b6020820152916001600160a01b03918216911614610e7f5760405162461bcd60e51b81526004016103149190613479565b50846001600160a01b031663b16a19de6040518163ffffffff1660e01b815260040160206040518083038186803b158015610eb957600080fd5b505afa158015610ecd573d6000803e3d6000fd5b505050506040513d601f19601f82011682018060405250810190610ef19190613046565b6001600160a01b0316816001600160a01b03161460405180604001604052806002815260200161066760f31b81525090610f3e5760405162461bcd60e51b81526004016103149190613479565b50836001600160a01b031663b16a19de6040518163ffffffff1660e01b815260040160206040518083038186803b158015610f7857600080fd5b505afa158015610f8c573d6000803e3d6000fd5b505050506040513d601f19601f82011682018060405250810190610fb09190613046565b6001600160a01b0316816001600160a01b03161460405180604001604052806002815260200161333960f01b81525090610ffd5760405162461bcd60e51b81526004016103149190613479565b50600061100a8785612af1565b905060006110188786612af1565b905060006110268787612af1565b603554604051633d38474960e11b81529192506001600160a01b031690637a708e929061105f9087908790879087908c906004016133f7565b600060405180830381600087803b15801561107957600080fd5b505af115801561108d573d6000803e3d6000fd5b50505050611099612f31565b60355460405163c44b11f760e01b81526001600160a01b039091169063c44b11f7906110c99088906004016133a6565b60206040518083038186803b1580156110e157600080fd5b505afa1580156110f5573d6000803e3d6000fd5b505050506040513d601f19601f82011682018060405250810190611119919061324c565b90506111288160ff8916612cbf565b61113381600161283d565b61113e816000612d12565b6035548151604051635c69493b60e11b81526001600160a01b039092169163b8d292769161117191899190600401613455565b600060405180830381600087803b15801561118b57600080fd5b505af115801561119f573d6000803e3d6000fd5b50505050836001600160a01b0316856001600160a01b03167f3a0ca721fc364424566385a1aa271ed508cc2c0949c2272575fb3013a163a45f85858a6040516111ea939291906133d4565b60405180910390a350505050505050505050565b60345460408051636ee554f560e11b8152905133926001600160a01b03169163ddcaa9ea916004808301926020929190829003018186803b15801561124257600080fd5b505afa158015611256573d6000803e3d6000fd5b505050506040513d601f19601f8201168201806040525081019061127a9190613046565b6001600160a01b031614604051806040016040528060028152602001611b9b60f11b815250906112bd5760405162461bcd60e51b81526004016103149190613479565b5060355460405163bedb86fb60e01b81526001600160a01b039091169063bedb86fb906112ee90849060040161346e565b600060405180830381600087803b15801561130857600080fd5b505af115801561131c573d6000803e3d6000fd5b5050505050565b603454604080516315d9b46f60e31b8152905133926001600160a01b03169163aecda378916004808301926020929190829003018186803b15801561136757600080fd5b505afa15801561137b573d6000803e3d6000fd5b505050506040513d601f19601f8201168201806040525081019061139f9190613046565b6001600160a01b03161460405180604001604052806002815260200161333360f01b815250906113e25760405162461bcd60e51b81526004016103149190613479565b506113eb612f31565b60355460405163c44b11f760e01b81526001600160a01b039091169063c44b11f79061141b9085906004016133a6565b60206040518083038186803b15801561143357600080fd5b505afa158015611447573d6000803e3d6000fd5b505050506040513d601f19601f8201168201806040525081019061146b919061324c565b9050611478816001612d12565b6035548151604051635c69493b60e11b81526001600160a01b039092169163b8d29276916114ab91869190600401613455565b600060405180830381600087803b1580156114c557600080fd5b505af11580156114d9573d6000803e3d6000fd5b50506040516001600160a01b03851692507f85dc710add8a0914461a7dc5a63f6fc529a7700f8c6089a3faf5e93256ccf12a9150600090a25050565b603454604080516315d9b46f60e31b8152905133926001600160a01b03169163aecda378916004808301926020929190829003018186803b15801561155957600080fd5b505afa15801561156d573d6000803e3d6000fd5b505050506040513d601f19601f820116820180604052508101906115919190613046565b6001600160a01b03161460405180604001604052806002815260200161333360f01b815250906115d45760405162461bcd60e51b81526004016103149190613479565b506115dd612f31565b60355460405163c44b11f760e01b81526001600160a01b039091169063c44b11f79061160d9088906004016133a6565b60206040518083038186803b15801561162557600080fd5b505afa158015611639573d6000803e3d6000fd5b505050506040513d601f19601f8201168201806040525081019061165d919061324c565b90508284111560405180604001604052806002815260200161373560f01b8152509061169c5760405162461bcd60e51b81526004016103149190613479565b50821561172d57604080518082019091526002815261373560f01b602082015261271083116116de5760405162461bcd60e51b81526004016103149190613479565b506127106116ec8484612d40565b111560405180604001604052806002815260200161373560f01b815250906117275760405162461bcd60e51b81526004016103149190613479565b5061176f565b604080518082019091526002815261373560f01b602082015282156117655760405162461bcd60e51b81526004016103149190613479565b5061176f856126d6565b6117798185612db2565b6117838184612dfb565b61178d8183612e4c565b6035548151604051635c69493b60e11b81526001600160a01b039092169163b8d29276916117c091899190600401613455565b600060405180830381600087803b1580156117da57600080fd5b505af11580156117ee573d6000803e3d6000fd5b50505050846001600160a01b03167f637febbda9275aea2e85c0ff690444c8d87eb2e8339bbede9715abcc89cb099585858560405161182f939291906134e3565b60405180910390a25050505050565b603454604080516315d9b46f60e31b8152905133926001600160a01b03169163aecda378916004808301926020929190829003018186803b15801561188257600080fd5b505afa158015611896573d6000803e3d6000fd5b505050506040513d601f19601f820116820180604052508101906118ba9190613046565b6001600160a01b03161460405180604001604052806002815260200161333360f01b815250906118fd5760405162461bcd60e51b81526004016103149190613479565b50611906612f31565b60355460405163c44b11f760e01b81526001600160a01b039091169063c44b11f7906119369085906004016133a6565b60206040518083038186803b15801561194e57600080fd5b505afa158015611962573d6000803e3d6000fd5b505050506040513d601f19601f82011682018060405250810190611986919061324c565b9050611993816000612e9f565b6035548151604051635c69493b60e11b81526001600160a01b039092169163b8d29276916119c691869190600401613455565b600060405180830381600087803b1580156119e057600080fd5b505af11580156119f4573d6000803e3d6000fd5b50506040516001600160a01b03851692507fe9a7e5fd4fc8ea18e602350324bf48e8f05d12434af0ce0be05743e6a5fdcb9e9150600090a25050565b603454604080516315d9b46f60e31b8152905133926001600160a01b03169163aecda378916004808301926020929190829003018186803b158015611a7457600080fd5b505afa158015611a88573d6000803e3d6000fd5b505050506040513d601f19601f82011682018060405250810190611aac9190613046565b6001600160a01b03161460405180604001604052806002815260200161333360f01b81525090611aef5760405162461bcd60e51b81526004016103149190613479565b50611af8612f44565b6035546040516335ea6a7560e01b81526001600160a01b03909116906335ea6a7590611b289086906004016133a6565b6101806040518083038186803b158015611b4157600080fd5b505afa158015611b55573d6000803e3d6000fd5b505050506040513d601f19601f82011682018060405250810190611b799190613267565b9050611b8b838261010001518461286b565b816001600160a01b03168161010001516001600160a01b0316846001600160a01b03167f7a943a5b6c214bf7726c069a878b1e2a8e7371981d516048b84e03743e67bc2860405160405180910390a4505050565b603454604080516315d9b46f60e31b8152905133926001600160a01b03169163aecda378916004808301926020929190829003018186803b158015611c2357600080fd5b505afa158015611c37573d6000803e3d6000fd5b505050506040513d601f19601f82011682018060405250810190611c5b9190613046565b6001600160a01b03161460405180604001604052806002815260200161333360f01b81525090611c9e5760405162461bcd60e51b81526004016103149190613479565b50611ca7612f31565b60355460405163c44b11f760e01b81526001600160a01b039091169063c44b11f790611cd79085906004016133a6565b60206040518083038186803b158015611cef57600080fd5b505afa158015611d03573d6000803e3d6000fd5b505050506040513d601f19601f82011682018060405250810190611d27919061324c565b9050611d3481600161283d565b6035548151604051635c69493b60e11b81526001600160a01b039092169163b8d2927691611d6791869190600401613455565b600060405180830381600087803b158015611d8157600080fd5b505af1158015611d95573d6000803e3d6000fd5b50506040516001600160a01b03851692507f35b80cd8ea3440e9a8454f116fa658b858da1b64c86c48451f4559cefcdfb56c9150600090a25050565b603454604080516315d9b46f60e31b8152905133926001600160a01b03169163aecda378916004808301926020929190829003018186803b158015611e1557600080fd5b505afa158015611e29573d6000803e3d6000fd5b505050506040513d601f19601f82011682018060405250810190611e4d9190613046565b6001600160a01b03161460405180604001604052806002815260200161333360f01b81525090611e905760405162461bcd60e51b81526004016103149190613479565b50611e99612f31565b60355460405163c44b11f760e01b81526001600160a01b039091169063c44b11f790611ec99085906004016133a6565b60206040518083038186803b158015611ee157600080fd5b505afa158015611ef5573d6000803e3d6000fd5b505050506040513d601f19601f82011682018060405250810190611f19919061324c565b9050611f26816001612ecd565b6035548151604051635c69493b60e11b81526001600160a01b039092169163b8d2927691611f5991869190600401613455565b600060405180830381600087803b158015611f7357600080fd5b505af1158015611f87573d6000803e3d6000fd5b50506040516001600160a01b03851692507f8dee2b2f3e98319ae6347eda521788f73f4086c9be9a594942b370b137fb8cb19150600090a25050565b6000611fcd612efb565b60015490915060ff1680611fe45750611fe4612f00565b80611ff0575060005481115b61200c5760405162461bcd60e51b81526004016103149061348c565b60015460ff1615801561202b576001805460ff19168117905560008290555b603480546001600160a01b0319166001600160a01b03858116919091179182905560408051630261bf8b60e01b815290519290911691630261bf8b91600480820192602092909190829003018186803b15801561208757600080fd5b505afa15801561209b573d6000803e3d6000fd5b505050506040513d601f19601f820116820180604052508101906120bf9190613046565b603580546001600160a01b0319166001600160a01b039290921691909117905580156120f0576001805460ff191690555b505050565b603454604080516315d9b46f60e31b8152905133926001600160a01b03169163aecda378916004808301926020929190829003018186803b15801561213957600080fd5b505afa15801561214d573d6000803e3d6000fd5b505050506040513d601f19601f820116820180604052508101906121719190613046565b6001600160a01b03161460405180604001604052806002815260200161333360f01b815250906121b45760405162461bcd60e51b81526004016103149190613479565b506121bd612f31565b60355460405163c44b11f760e01b81526001600160a01b039091169063c44b11f7906121ed9086906004016133a6565b60206040518083038186803b15801561220557600080fd5b505afa158015612219573d6000803e3d6000fd5b505050506040513d601f19601f8201168201806040525081019061223d919061324c565b905061224a816001612e9f565b6122548183612ecd565b6035548151604051635c69493b60e11b81526001600160a01b039092169163b8d292769161228791879190600401613455565b600060405180830381600087803b1580156122a157600080fd5b505af11580156122b5573d6000803e3d6000fd5b50505050826001600160a01b03167fab2f7f9e5ca2772fafa94f355c1842a80ae6b9e41f83083098d81f67d7a0b50883604051610961919061346e565b603454604080516315d9b46f60e31b8152905133926001600160a01b03169163aecda378916004808301926020929190829003018186803b15801561233657600080fd5b505afa15801561234a573d6000803e3d6000fd5b505050506040513d601f19601f8201168201806040525081019061236e9190613046565b6001600160a01b03161460405180604001604052806002815260200161333360f01b815250906123b15760405162461bcd60e51b81526004016103149190613479565b506123ba612f31565b60355460405163c44b11f760e01b81526001600160a01b039091169063c44b11f7906123ea9085906004016133a6565b60206040518083038186803b15801561240257600080fd5b505afa158015612416573d6000803e3d6000fd5b505050506040513d601f19601f8201168201806040525081019061243a919061324c565b9050612447816000612d12565b6035548151604051635c69493b60e11b81526001600160a01b039092169163b8d292769161247a91869190600401613455565b600060405180830381600087803b15801561249457600080fd5b505af11580156124a8573d6000803e3d6000fd5b50506040516001600160a01b03851692507f838ecdc4709a31a26db48b0c853212cedde3f725f07030079d793fb0719647609150600090a25050565b603454604080516315d9b46f60e31b8152905133926001600160a01b03169163aecda378916004808301926020929190829003018186803b15801561252857600080fd5b505afa15801561253c573d6000803e3d6000fd5b505050506040513d601f19601f820116820180604052508101906125609190613046565b6001600160a01b03161460405180604001604052806002815260200161333360f01b815250906125a35760405162461bcd60e51b81526004016103149190613479565b506125ac612f31565b60355460405163c44b11f760e01b81526001600160a01b039091169063c44b11f7906125dc9085906004016133a6565b60206040518083038186803b1580156125f457600080fd5b505afa158015612608573d6000803e3d6000fd5b505050506040513d601f19601f8201168201806040525081019061262c919061324c565b9050612639816000612ecd565b6035548151604051635c69493b60e11b81526001600160a01b039092169163b8d292769161266c91869190600401613455565b600060405180830381600087803b15801561268657600080fd5b505af115801561269a573d6000803e3d6000fd5b50506040516001600160a01b03851692507f8bbf35441ac2c607ddecadd3d8ee58636d32f217fad201fb2655581502dd84e39150600090a25050565b6126de612f44565b6035546040516335ea6a7560e01b81526001600160a01b03909116906335ea6a759061270e9085906004016133a6565b6101806040518083038186803b15801561272757600080fd5b505afa15801561273b573d6000803e3d6000fd5b505050506040513d601f19601f8201168201806040525081019061275f9190613267565b90506000826001600160a01b03166370a082318360e001516040518263ffffffff1660e01b815260040161279391906133a6565b60206040518083038186803b1580156127ab57600080fd5b505afa1580156127bf573d6000803e3d6000fd5b505050506040513d601f19601f820116820180604052508101906127e39190613362565b9050801580156127fe575060608201516001600160801b0316155b604051806040016040528060028152602001610ccd60f21b815250906128375760405162461bcd60e51b81526004016103149190613479565b50505050565b60388161284b57600061284e565b60015b8351670100000000000000191660ff9190911690911b1790915250565b81612874612f31565b60355460405163c44b11f760e01b81526001600160a01b039091169063c44b11f7906128a49088906004016133a6565b60206040518083038186803b1580156128bc57600080fd5b505afa1580156128d0573d6000803e3d6000fd5b505050506040513d601f19601f820116820180604052508101906128f4919061324c565b9050600061290182612f06565b509350505050606081856001600160a01b03166306fdde036040518163ffffffff1660e01b815260040160006040518083038186803b15801561294357600080fd5b505afa158015612957573d6000803e3d6000fd5b505050506040513d6000823e601f3d908101601f1916820160405261297f91908101906131c0565b866001600160a01b03166395d89b416040518163ffffffff1660e01b815260040160006040518083038186803b1580156129b857600080fd5b505afa1580156129cc573d6000803e3d6000fd5b505050506040513d6000823e601f3d908101601f191682016040526129f491908101906131c0565b604051602401612a06939291906134f9565b60408051601f198184030181529181526020820180516001600160e01b031663188c392760e11b1790525163278f794360e11b81529091506001600160a01b03851690634f1ef28690612a5f9088908590600401613429565b600060405180830381600087803b158015612a7957600080fd5b505af1158015612a8d573d6000803e3d6000fd5b5050505050505050505050565b604080518082019091526002815261373160f01b602082015261ffff821115612ad65760405162461bcd60e51b81526004016103149190613479565b50815169ffff0000000000000000191660409190911b179052565b60008030604051612b0190612faf565b612b0b91906133a6565b604051809103906000f080158015612b27573d6000803e3d6000fd5b509050606083856001600160a01b03166306fdde036040518163ffffffff1660e01b815260040160006040518083038186803b158015612b6657600080fd5b505afa158015612b7a573d6000803e3d6000fd5b505050506040513d6000823e601f3d908101601f19168201604052612ba291908101906131c0565b866001600160a01b03166395d89b416040518163ffffffff1660e01b815260040160006040518083038186803b158015612bdb57600080fd5b505afa158015612bef573d6000803e3d6000fd5b505050506040513d6000823e601f3d908101601f19168201604052612c1791908101906131c0565b604051602401612c29939291906134f9565b60408051601f198184030181529181526020820180516001600160e01b031663188c392760e11b1790525163347d5e2560e21b81529091506001600160a01b0383169063d1f5789490612c829088908590600401613429565b600060405180830381600087803b158015612c9c57600080fd5b505af1158015612cb0573d6000803e3d6000fd5b50939450505050505b92915050565b604080518082019091526002815261037360f41b602082015260ff821115612cfa5760405162461bcd60e51b81526004016103149190613479565b50815166ff000000000000191660309190911b179052565b603981612d20576000612d23565b60015b8351670200000000000000191660ff9190911690911b1790915250565b6000821580612d4d575081155b15612d5a57506000612cb9565b816113881981612d6657fe5b0483111560405180604001604052806002815260200161068760f31b81525090612da35760405162461bcd60e51b81526004016103149190613479565b50506127109102611388010490565b604080518082019091526002815261363760f01b602082015261ffff821115612dee5760405162461bcd60e51b81526004016103149190613479565b50815161ffff1916179052565b60408051808201909152600281526106c760f31b602082015261ffff821115612e375760405162461bcd60e51b81526004016103149190613479565b50815163ffff0000191660109190911b179052565b604080518082019091526002815261363960f01b602082015261ffff821115612e885760405162461bcd60e51b81526004016103149190613479565b50815165ffff00000000191660209190911b179052565b603a81612ead576000612eb0565b60015b8351670400000000000000191660ff9190911690911b1790915250565b603b81612edb576000612ede565b60015b8351670800000000000000191660ff9190911690911b1790915250565b600190565b303b1590565b5161ffff80821692601083901c821692602081901c831692603082901c60ff169260409290921c1690565b6040518060200160405280600081525090565b604051806101800160405280612f58612f31565b815260006020820181905260408201819052606082018190526080820181905260a0820181905260c0820181905260e082018190526101008201819052610120820181905261014082018190526101609091015290565b610773806135ac83390190565b8051612cb981613584565b600060208284031215612fd8578081fd5b612fe26020613531565b9151825250919050565b80516001600160801b0381168114612cb957600080fd5b805164ffffffffff81168114612cb957600080fd5b8051612cb98161359c565b600060208284031215613034578081fd5b813561303f81613584565b9392505050565b600060208284031215613057578081fd5b815161303f81613584565b60008060408385031215613074578081fd5b823561307f81613584565b9150602083013561308f81613584565b809150509250929050565b600080600080600060a086880312156130b1578081fd5b85356130bc81613584565b945060208601356130cc81613584565b935060408601356130dc81613584565b925060608601356130ec8161359c565b915060808601356130fc81613584565b809150509295509295909350565b6000806040838503121561311c578182fd5b823561312781613584565b91506020830135801515811461308f578182fd5b6000806040838503121561314d578182fd5b823561315881613584565b946020939093013593505050565b6000806000806080858703121561317b578384fd5b843561318681613584565b966020860135965060408601359560600135945092505050565b6000602082840312156131b1578081fd5b8135801515811461303f578182fd5b6000602082840312156131d1578081fd5b815167ffffffffffffffff808211156131e8578283fd5b818401915084601f8301126131fb578283fd5b815181811115613209578384fd5b61321c601f8201601f1916602001613531565b9150808252856020828501011115613232578384fd5b613243816020840160208601613558565b50949350505050565b60006020828403121561325d578081fd5b61303f8383612fc7565b600061018080838503121561327a578182fd5b61328381613531565b905061328f8484612fc7565b815261329e8460208501612fec565b60208201526132b08460408501612fec565b60408201526132c28460608501612fec565b60608201526132d48460808501612fec565b60808201526132e68460a08501612fec565b60a08201526132f88460c08501613003565b60c082015261330a8460e08501612fbc565b60e082015261010061331e85828601612fbc565b9082015261012061333185858301612fbc565b9082015261014061334485858301612fbc565b9082015261016061335785858301613018565b908201529392505050565b600060208284031215613373578081fd5b5051919050565b60008151808452613392816020860160208601613558565b601f01601f19169290920160200192915050565b6001600160a01b0391909116815260200190565b6001600160a01b0392831681529116602082015260400190565b6001600160a01b0393841681529183166020830152909116604082015260600190565b6001600160a01b0395861681529385166020850152918416604084015283166060830152909116608082015260a00190565b6001600160a01b038316815260406020820181905260009061344d9083018461337a565b949350505050565b6001600160a01b03929092168252602082015260400190565b901515815260200190565b60006020825261303f602083018461337a565b6020808252602e908201527f436f6e747261637420696e7374616e63652068617320616c726561647920626560408201526d195b881a5b9a5d1a585b1a5e995960921b606082015260800190565b90815260200190565b9283526020830191909152604082015260600190565b600060ff8516825260606020830152613515606083018561337a565b8281036040840152613527818561337a565b9695505050505050565b60405181810167ffffffffffffffff8111828210171561355057600080fd5b604052919050565b60005b8381101561357357818101518382015260200161355b565b838111156128375750506000910152565b6001600160a01b038116811461359957600080fd5b50565b60ff8116811461359957600080fdfe60a060405234801561001057600080fd5b506040516107733803806107738339818101604052602081101561003357600080fd5b5051606081901b6001600160601b0319166080526001600160a01b03166106f36100806000398061022852806102725280610331528061045e528061048752806105af52506106f36000f3fe60806040526004361061004a5760003560e01c80633659cfe6146100545780634f1ef286146100875780635c60da1b14610107578063d1f5789414610138578063f851a440146101ee575b610052610203565b005b34801561006057600080fd5b506100526004803603602081101561007757600080fd5b50356001600160a01b031661021d565b6100526004803603604081101561009d57600080fd5b6001600160a01b0382351691908101906040810160208201356401000000008111156100c857600080fd5b8201836020820111156100da57600080fd5b803590602001918460018302840111640100000000831117156100fc57600080fd5b509092509050610267565b34801561011357600080fd5b5061011c610324565b604080516001600160a01b039092168252519081900360200190f35b6100526004803603604081101561014e57600080fd5b6001600160a01b03823516919081019060408101602082013564010000000081111561017957600080fd5b82018360208201111561018b57600080fd5b803590602001918460018302840111640100000000831117156101ad57600080fd5b91908080601f016020809104026020016040519081016040528093929190818152602001838380828437600092019190915250929550610371945050505050565b3480156101fa57600080fd5b5061011c610451565b61020b6104ab565b61021b6102166104b3565b6104d8565b565b336001600160a01b037f000000000000000000000000000000000000000000000000000000000000000016141561025c57610257816104fc565b610264565b610264610203565b50565b336001600160a01b037f0000000000000000000000000000000000000000000000000000000000000000161415610317576102a1836104fc565b6000836001600160a01b031683836040518083838082843760405192019450600093509091505080830381855af49150503d80600081146102fe576040519150601f19603f3d011682016040523d82523d6000602084013e610303565b606091505b505090508061031157600080fd5b5061031f565b61031f610203565b505050565b6000336001600160a01b037f00000000000000000000000000000000000000000000000000000000000000001614156103665761035f6104b3565b905061036e565b61036e610203565b90565b600061037b6104b3565b6001600160a01b03161461038e57600080fd5b6103978261053c565b80511561044d576000826001600160a01b0316826040518082805190602001908083835b602083106103da5780518252601f1990920191602091820191016103bb565b6001836020036101000a038019825116818451168082178552505050505050905001915050600060405180830381855af49150503d806000811461043a576040519150601f19603f3d011682016040523d82523d6000602084013e61043f565b606091505b505090508061031f57600080fd5b5050565b6000336001600160a01b037f000000000000000000000000000000000000000000000000000000000000000016141561036657507f000000000000000000000000000000000000000000000000000000000000000061036e565b61021b6105a4565b7f360894a13ba1a3210667c828492db98dca3e2076cc3735a920a3ca505d382bbc5490565b3660008037600080366000845af43d6000803e8080156104f7573d6000f35b3d6000fd5b6105058161053c565b6040516001600160a01b038216907fbc7cd75a20ee27fd9adebab32041f755214dbc6bffa90cc0225b39da2e5c2d3b90600090a250565b61054581610614565b6105805760405162461bcd60e51b815260040180806020018281038252603b815260200180610683603b913960400191505060405180910390fd5b7f360894a13ba1a3210667c828492db98dca3e2076cc3735a920a3ca505d382bbc55565b336001600160a01b037f000000000000000000000000000000000000000000000000000000000000000016141561060c5760405162461bcd60e51b81526004018080602001828103825260328152602001806106516032913960400191505060405180910390fd5b61021b61021b565b6000813f7fc5d2460186f7233c927e7db2dcc703c0e500b653ca82273b7bfad8045d85a47081811480159061064857508115155b94935050505056fe43616e6e6f742063616c6c2066616c6c6261636b2066756e6374696f6e2066726f6d207468652070726f78792061646d696e43616e6e6f742073657420612070726f787920696d706c656d656e746174696f6e20746f2061206e6f6e2d636f6e74726163742061646472657373a2646970667358221220731ef66ed91bf7989fce86ceb26924ec3ddeb0f1e222f525f777af9ec8465ab964736f6c634300060c0033a2646970667358221220b01c3e5d4d7523a0a8edf0f47eeab4df003e859392d1009c15fec75ecde9028964736f6c634300060c0033",
  "immutableReferences": {},
  "source": "// SPDX-License-Identifier: agpl-3.0\npragma solidity 0.6.12;\npragma experimental ABIEncoderV2;\n\nimport {SafeMath} from '../../dependencies/openzeppelin/contracts/SafeMath.sol';\nimport {VersionedInitializable} from '../libraries/aave-upgradeability/VersionedInitializable.sol';\nimport {\n  InitializableImmutableAdminUpgradeabilityProxy\n} from '../libraries/aave-upgradeability/InitializableImmutableAdminUpgradeabilityProxy.sol';\nimport {ReserveConfiguration} from '../libraries/configuration/ReserveConfiguration.sol';\nimport {ILendingPoolAddressesProvider} from '../../interfaces/ILendingPoolAddressesProvider.sol';\nimport {ILendingPool} from '../../interfaces/ILendingPool.sol';\nimport {ITokenConfiguration} from '../../interfaces/ITokenConfiguration.sol';\nimport {IERC20Detailed} from '../../dependencies/openzeppelin/contracts/IERC20Detailed.sol';\nimport {Errors} from '../libraries/helpers/Errors.sol';\nimport {PercentageMath} from '../libraries/math/PercentageMath.sol';\nimport {DataTypes} from '../libraries/types/DataTypes.sol';\n\n/**\n * @title LendingPoolConfigurator contract\n * @author Aave\n * @dev Implements the configuration methods for the Aave protocol\n **/\n\ncontract LendingPoolConfigurator is VersionedInitializable {\n  using SafeMath for uint256;\n  using PercentageMath for uint256;\n  using ReserveConfiguration for DataTypes.ReserveConfigurationMap;\n\n  /**\n   * @dev Emitted when a reserve is initialized.\n   * @param asset The address of the underlying asset of the reserve\n   * @param aToken The address of the associated aToken contract\n   * @param stableDebtToken The address of the associated stable rate debt token\n   * @param variableDebtToken The address of the associated variable rate debt token\n   * @param interestRateStrategyAddress The address of the interest rate strategy for the reserve\n   **/\n  event ReserveInitialized(\n    address indexed asset,\n    address indexed aToken,\n    address stableDebtToken,\n    address variableDebtToken,\n    address interestRateStrategyAddress\n  );\n\n  /**\n   * @dev Emitted when borrowing is enabled on a reserve\n   * @param asset The address of the underlying asset of the reserve\n   * @param stableRateEnabled True if stable rate borrowing is enabled, false otherwise\n   **/\n  event BorrowingEnabledOnReserve(address indexed asset, bool stableRateEnabled);\n\n  /**\n   * @dev Emitted when borrowing is disabled on a reserve\n   * @param asset The address of the underlying asset of the reserve\n   **/\n  event BorrowingDisabledOnReserve(address indexed asset);\n\n  /**\n   * @dev Emitted when the collateralization risk parameters for the specified asset are updated.\n   * @param asset The address of the underlying asset of the reserve\n   * @param ltv The loan to value of the asset when used as collateral\n   * @param liquidationThreshold The threshold at which loans using this asset as collateral will be considered undercollateralized\n   * @param liquidationBonus The bonus liquidators receive to liquidate this asset\n   **/\n  event CollateralConfigurationChanged(\n    address indexed asset,\n    uint256 ltv,\n    uint256 liquidationThreshold,\n    uint256 liquidationBonus\n  );\n\n  /**\n   * @dev Emitted when stable rate borrowing is enabled on a reserve\n   * @param asset The address of the underlying asset of the reserve\n   **/\n  event StableRateEnabledOnReserve(address indexed asset);\n\n  /**\n   * @dev Emitted when stable rate borrowing is disabled on a reserve\n   * @param asset The address of the underlying asset of the reserve\n   **/\n  event StableRateDisabledOnReserve(address indexed asset);\n\n  /**\n   * @dev Emitted when a reserve is activated\n   * @param asset The address of the underlying asset of the reserve\n   **/\n  event ReserveActivated(address indexed asset);\n\n  /**\n   * @dev Emitted when a reserve is deactivated\n   * @param asset The address of the underlying asset of the reserve\n   **/\n  event ReserveDeactivated(address indexed asset);\n\n  /**\n   * @dev Emitted when a reserve is frozen\n   * @param asset The address of the underlying asset of the reserve\n   **/\n  event ReserveFrozen(address indexed asset);\n\n  /**\n   * @dev Emitted when a reserve is unfrozen\n   * @param asset The address of the underlying asset of the reserve\n   **/\n  event ReserveUnfrozen(address indexed asset);\n\n  /**\n   * @dev Emitted when a reserve factor is updated\n   * @param asset The address of the underlying asset of the reserve\n   * @param factor The new reserve factor\n   **/\n  event ReserveFactorChanged(address indexed asset, uint256 factor);\n\n  /**\n   * @dev Emitted when the reserve decimals are updated\n   * @param asset The address of the underlying asset of the reserve\n   * @param decimals The new decimals\n   **/\n  event ReserveDecimalsChanged(address indexed asset, uint256 decimals);\n\n  /**\n   * @dev Emitted when a reserve interest strategy contract is updated\n   * @param asset The address of the underlying asset of the reserve\n   * @param strategy The new address of the interest strategy contract\n   **/\n  event ReserveInterestRateStrategyChanged(address indexed asset, address strategy);\n\n  /**\n   * @dev Emitted when an aToken implementation is upgraded\n   * @param asset The address of the underlying asset of the reserve\n   * @param proxy The aToken proxy address\n   * @param implementation The new aToken implementation\n   **/\n  event ATokenUpgraded(\n    address indexed asset,\n    address indexed proxy,\n    address indexed implementation\n  );\n\n  /**\n   * @dev Emitted when the implementation of a stable debt token is upgraded\n   * @param asset The address of the underlying asset of the reserve\n   * @param proxy The stable debt token proxy address\n   * @param implementation The new aToken implementation\n   **/\n  event StableDebtTokenUpgraded(\n    address indexed asset,\n    address indexed proxy,\n    address indexed implementation\n  );\n\n  /**\n   * @dev Emitted when the implementation of a variable debt token is upgraded\n   * @param asset The address of the underlying asset of the reserve\n   * @param proxy The variable debt token proxy address\n   * @param implementation The new aToken implementation\n   **/\n  event VariableDebtTokenUpgraded(\n    address indexed asset,\n    address indexed proxy,\n    address indexed implementation\n  );\n\n  ILendingPoolAddressesProvider internal addressesProvider;\n  ILendingPool internal pool;\n\n  modifier onlyPoolAdmin {\n    require(addressesProvider.getPoolAdmin() == msg.sender, Errors.CALLER_NOT_POOL_ADMIN);\n    _;\n  }\n\n  modifier onlyEmergencyAdmin {\n    require(\n      addressesProvider.getEmergencyAdmin() == msg.sender,\n      Errors.LPC_CALLER_NOT_EMERGENCY_ADMIN\n    );\n    _;\n  }\n\n  uint256 internal constant CONFIGURATOR_REVISION = 0x1;\n\n  function getRevision() internal pure override returns (uint256) {\n    return CONFIGURATOR_REVISION;\n  }\n\n  function initialize(ILendingPoolAddressesProvider provider) public initializer {\n    addressesProvider = provider;\n    pool = ILendingPool(addressesProvider.getLendingPool());\n  }\n\n  /**\n   * @dev Initializes a reserve\n   * @param aTokenImpl  The address of the aToken contract implementation\n   * @param stableDebtTokenImpl The address of the stable debt token contract\n   * @param variableDebtTokenImpl The address of the variable debt token contract\n   * @param underlyingAssetDecimals The decimals of the reserve underlying asset\n   * @param interestRateStrategyAddress The address of the interest rate strategy contract for this reserve\n   **/\n  function initReserve(\n    address aTokenImpl,\n    address stableDebtTokenImpl,\n    address variableDebtTokenImpl,\n    uint8 underlyingAssetDecimals,\n    address interestRateStrategyAddress\n  ) public onlyPoolAdmin {\n    address asset = ITokenConfiguration(aTokenImpl).UNDERLYING_ASSET_ADDRESS();\n\n    require(\n      address(pool) == ITokenConfiguration(aTokenImpl).POOL(),\n      Errors.LPC_INVALID_ATOKEN_POOL_ADDRESS\n    );\n    require(\n      address(pool) == ITokenConfiguration(stableDebtTokenImpl).POOL(),\n      Errors.LPC_INVALID_STABLE_DEBT_TOKEN_POOL_ADDRESS\n    );\n    require(\n      address(pool) == ITokenConfiguration(variableDebtTokenImpl).POOL(),\n      Errors.LPC_INVALID_VARIABLE_DEBT_TOKEN_POOL_ADDRESS\n    );\n    require(\n      asset == ITokenConfiguration(stableDebtTokenImpl).UNDERLYING_ASSET_ADDRESS(),\n      Errors.LPC_INVALID_STABLE_DEBT_TOKEN_UNDERLYING_ADDRESS\n    );\n    require(\n      asset == ITokenConfiguration(variableDebtTokenImpl).UNDERLYING_ASSET_ADDRESS(),\n      Errors.LPC_INVALID_VARIABLE_DEBT_TOKEN_UNDERLYING_ADDRESS\n    );\n\n    address aTokenProxyAddress = _initTokenWithProxy(aTokenImpl, underlyingAssetDecimals);\n\n    address stableDebtTokenProxyAddress =\n      _initTokenWithProxy(stableDebtTokenImpl, underlyingAssetDecimals);\n\n    address variableDebtTokenProxyAddress =\n      _initTokenWithProxy(variableDebtTokenImpl, underlyingAssetDecimals);\n\n    pool.initReserve(\n      asset,\n      aTokenProxyAddress,\n      stableDebtTokenProxyAddress,\n      variableDebtTokenProxyAddress,\n      interestRateStrategyAddress\n    );\n\n    DataTypes.ReserveConfigurationMap memory currentConfig = pool.getConfiguration(asset);\n\n    currentConfig.setDecimals(underlyingAssetDecimals);\n\n    currentConfig.setActive(true);\n    currentConfig.setFrozen(false);\n\n    pool.setConfiguration(asset, currentConfig.data);\n\n    emit ReserveInitialized(\n      asset,\n      aTokenProxyAddress,\n      stableDebtTokenProxyAddress,\n      variableDebtTokenProxyAddress,\n      interestRateStrategyAddress\n    );\n  }\n\n  /**\n   * @dev Updates the aToken implementation for the reserve\n   * @param asset The address of the underlying asset of the reserve to be updated\n   * @param implementation The address of the new aToken implementation\n   **/\n  function updateAToken(address asset, address implementation) external onlyPoolAdmin {\n    DataTypes.ReserveData memory reserveData = pool.getReserveData(asset);\n\n    _upgradeTokenImplementation(asset, reserveData.aTokenAddress, implementation);\n\n    emit ATokenUpgraded(asset, reserveData.aTokenAddress, implementation);\n  }\n\n  /**\n   * @dev Updates the stable debt token implementation for the reserve\n   * @param asset The address of the underlying asset of the reserve to be updated\n   * @param implementation The address of the new aToken implementation\n   **/\n  function updateStableDebtToken(address asset, address implementation) external onlyPoolAdmin {\n    DataTypes.ReserveData memory reserveData = pool.getReserveData(asset);\n\n    _upgradeTokenImplementation(asset, reserveData.stableDebtTokenAddress, implementation);\n\n    emit StableDebtTokenUpgraded(asset, reserveData.stableDebtTokenAddress, implementation);\n  }\n\n  /**\n   * @dev Updates the variable debt token implementation for the asset\n   * @param asset The address of the underlying asset of the reserve to be updated\n   * @param implementation The address of the new aToken implementation\n   **/\n  function updateVariableDebtToken(address asset, address implementation) external onlyPoolAdmin {\n    DataTypes.ReserveData memory reserveData = pool.getReserveData(asset);\n\n    _upgradeTokenImplementation(asset, reserveData.variableDebtTokenAddress, implementation);\n\n    emit VariableDebtTokenUpgraded(asset, reserveData.variableDebtTokenAddress, implementation);\n  }\n\n  /**\n   * @dev Enables borrowing on a reserve\n   * @param asset The address of the underlying asset of the reserve\n   * @param stableBorrowRateEnabled True if stable borrow rate needs to be enabled by default on this reserve\n   **/\n  function enableBorrowingOnReserve(address asset, bool stableBorrowRateEnabled)\n    external\n    onlyPoolAdmin\n  {\n    DataTypes.ReserveConfigurationMap memory currentConfig = pool.getConfiguration(asset);\n\n    currentConfig.setBorrowingEnabled(true);\n    currentConfig.setStableRateBorrowingEnabled(stableBorrowRateEnabled);\n\n    pool.setConfiguration(asset, currentConfig.data);\n\n    emit BorrowingEnabledOnReserve(asset, stableBorrowRateEnabled);\n  }\n\n  /**\n   * @dev Disables borrowing on a reserve\n   * @param asset The address of the underlying asset of the reserve\n   **/\n  function disableBorrowingOnReserve(address asset) external onlyPoolAdmin {\n    DataTypes.ReserveConfigurationMap memory currentConfig = pool.getConfiguration(asset);\n\n    currentConfig.setBorrowingEnabled(false);\n\n    pool.setConfiguration(asset, currentConfig.data);\n    emit BorrowingDisabledOnReserve(asset);\n  }\n\n  /**\n   * @dev Configures the reserve collateralization parameters\n   * all the values are expressed in percentages with two decimals of precision. A valid value is 10000, which means 100.00%\n   * @param asset The address of the underlying asset of the reserve\n   * @param ltv The loan to value of the asset when used as collateral\n   * @param liquidationThreshold The threshold at which loans using this asset as collateral will be considered undercollateralized\n   * @param liquidationBonus The bonus liquidators receive to liquidate this asset. The values is always above 100%. A value of 105%\n   * means the liquidator will receive a 5% bonus\n   **/\n  function configureReserveAsCollateral(\n    address asset,\n    uint256 ltv,\n    uint256 liquidationThreshold,\n    uint256 liquidationBonus\n  ) external onlyPoolAdmin {\n    DataTypes.ReserveConfigurationMap memory currentConfig = pool.getConfiguration(asset);\n\n    //validation of the parameters: the LTV can\n    //only be lower or equal than the liquidation threshold\n    //(otherwise a loan against the asset would cause instantaneous liquidation)\n    require(ltv <= liquidationThreshold, Errors.LPC_INVALID_CONFIGURATION);\n\n    if (liquidationThreshold != 0) {\n      //liquidation bonus must be bigger than 100.00%, otherwise the liquidator would receive less\n      //collateral than needed to cover the debt\n      require(\n        liquidationBonus > PercentageMath.PERCENTAGE_FACTOR,\n        Errors.LPC_INVALID_CONFIGURATION\n      );\n\n      //if threshold * bonus is less than PERCENTAGE_FACTOR, it's guaranteed that at the moment\n      //a loan is taken there is enough collateral available to cover the liquidation bonus\n      require(\n        liquidationThreshold.percentMul(liquidationBonus) <= PercentageMath.PERCENTAGE_FACTOR,\n        Errors.LPC_INVALID_CONFIGURATION\n      );\n    } else {\n      require(liquidationBonus == 0, Errors.LPC_INVALID_CONFIGURATION);\n      //if the liquidation threshold is being set to 0,\n      // the reserve is being disabled as collateral. To do so,\n      //we need to ensure no liquidity is deposited\n      _checkNoLiquidity(asset);\n    }\n\n    currentConfig.setLtv(ltv);\n    currentConfig.setLiquidationThreshold(liquidationThreshold);\n    currentConfig.setLiquidationBonus(liquidationBonus);\n\n    pool.setConfiguration(asset, currentConfig.data);\n\n    emit CollateralConfigurationChanged(asset, ltv, liquidationThreshold, liquidationBonus);\n  }\n\n  /**\n   * @dev Enable stable rate borrowing on a reserve\n   * @param asset The address of the underlying asset of the reserve\n   **/\n  function enableReserveStableRate(address asset) external onlyPoolAdmin {\n    DataTypes.ReserveConfigurationMap memory currentConfig = pool.getConfiguration(asset);\n\n    currentConfig.setStableRateBorrowingEnabled(true);\n\n    pool.setConfiguration(asset, currentConfig.data);\n\n    emit StableRateEnabledOnReserve(asset);\n  }\n\n  /**\n   * @dev Disable stable rate borrowing on a reserve\n   * @param asset The address of the underlying asset of the reserve\n   **/\n  function disableReserveStableRate(address asset) external onlyPoolAdmin {\n    DataTypes.ReserveConfigurationMap memory currentConfig = pool.getConfiguration(asset);\n\n    currentConfig.setStableRateBorrowingEnabled(false);\n\n    pool.setConfiguration(asset, currentConfig.data);\n\n    emit StableRateDisabledOnReserve(asset);\n  }\n\n  /**\n   * @dev Activates a reserve\n   * @param asset The address of the underlying asset of the reserve\n   **/\n  function activateReserve(address asset) external onlyPoolAdmin {\n    DataTypes.ReserveConfigurationMap memory currentConfig = pool.getConfiguration(asset);\n\n    currentConfig.setActive(true);\n\n    pool.setConfiguration(asset, currentConfig.data);\n\n    emit ReserveActivated(asset);\n  }\n\n  /**\n   * @dev Deactivates a reserve\n   * @param asset The address of the underlying asset of the reserve\n   **/\n  function deactivateReserve(address asset) external onlyPoolAdmin {\n    _checkNoLiquidity(asset);\n\n    DataTypes.ReserveConfigurationMap memory currentConfig = pool.getConfiguration(asset);\n\n    currentConfig.setActive(false);\n\n    pool.setConfiguration(asset, currentConfig.data);\n\n    emit ReserveDeactivated(asset);\n  }\n\n  /**\n   * @dev Freezes a reserve. A frozen reserve doesn't allow any new deposit, borrow or rate swap\n   *  but allows repayments, liquidations, rate rebalances and withdrawals\n   * @param asset The address of the underlying asset of the reserve\n   **/\n  function freezeReserve(address asset) external onlyPoolAdmin {\n    DataTypes.ReserveConfigurationMap memory currentConfig = pool.getConfiguration(asset);\n\n    currentConfig.setFrozen(true);\n\n    pool.setConfiguration(asset, currentConfig.data);\n\n    emit ReserveFrozen(asset);\n  }\n\n  /**\n   * @dev Unfreezes a reserve\n   * @param asset The address of the underlying asset of the reserve\n   **/\n  function unfreezeReserve(address asset) external onlyPoolAdmin {\n    DataTypes.ReserveConfigurationMap memory currentConfig = pool.getConfiguration(asset);\n\n    currentConfig.setFrozen(false);\n\n    pool.setConfiguration(asset, currentConfig.data);\n\n    emit ReserveUnfrozen(asset);\n  }\n\n  /**\n   * @dev Updates the reserve factor of a reserve\n   * @param asset The address of the underlying asset of the reserve\n   * @param reserveFactor The new reserve factor of the reserve\n   **/\n  function setReserveFactor(address asset, uint256 reserveFactor) external onlyPoolAdmin {\n    DataTypes.ReserveConfigurationMap memory currentConfig = pool.getConfiguration(asset);\n\n    currentConfig.setReserveFactor(reserveFactor);\n\n    pool.setConfiguration(asset, currentConfig.data);\n\n    emit ReserveFactorChanged(asset, reserveFactor);\n  }\n\n  /**\n   * @dev Sets the interest rate strategy of a reserve\n   * @param asset The address of the underlying asset of the reserve\n   * @param rateStrategyAddress The new address of the interest strategy contract\n   **/\n  function setReserveInterestRateStrategyAddress(address asset, address rateStrategyAddress)\n    external\n    onlyPoolAdmin\n  {\n    pool.setReserveInterestRateStrategyAddress(asset, rateStrategyAddress);\n    emit ReserveInterestRateStrategyChanged(asset, rateStrategyAddress);\n  }\n\n  /**\n   * @dev pauses or unpauses all the actions of the protocol, including aToken transfers\n   * @param val true if protocol needs to be paused, false otherwise\n   **/\n  function setPoolPause(bool val) external onlyEmergencyAdmin {\n    pool.setPause(val);\n  }\n\n  function _initTokenWithProxy(address implementation, uint8 decimals) internal returns (address) {\n    InitializableImmutableAdminUpgradeabilityProxy proxy =\n      new InitializableImmutableAdminUpgradeabilityProxy(address(this));\n\n    bytes memory params =\n      abi.encodeWithSignature(\n        'initialize(uint8,string,string)',\n        decimals,\n        IERC20Detailed(implementation).name(),\n        IERC20Detailed(implementation).symbol()\n      );\n\n    proxy.initialize(implementation, params);\n\n    return address(proxy);\n  }\n\n  function _upgradeTokenImplementation(\n    address asset,\n    address proxyAddress,\n    address implementation\n  ) internal {\n    InitializableImmutableAdminUpgradeabilityProxy proxy =\n      InitializableImmutableAdminUpgradeabilityProxy(payable(proxyAddress));\n\n    DataTypes.ReserveConfigurationMap memory configuration = pool.getConfiguration(asset);\n\n    (, , , uint256 decimals, ) = configuration.getParamsMemory();\n\n    bytes memory params =\n      abi.encodeWithSignature(\n        'initialize(uint8,string,string)',\n        uint8(decimals),\n        IERC20Detailed(implementation).name(),\n        IERC20Detailed(implementation).symbol()\n      );\n\n    proxy.upgradeToAndCall(implementation, params);\n  }\n\n  function _checkNoLiquidity(address asset) internal view {\n    DataTypes.ReserveData memory reserveData = pool.getReserveData(asset);\n\n    uint256 availableLiquidity = IERC20Detailed(asset).balanceOf(reserveData.aTokenAddress);\n\n    require(\n      availableLiquidity == 0 && reserveData.currentLiquidityRate == 0,\n      Errors.LPC_RESERVE_LIQUIDITY_NOT_0\n    );\n  }\n}\n",
  "sourcePath": "/home/conjohn/code/liquiditybot/contracts/aave/protocol/lendingpool/LendingPoolConfigurator.sol",
  "compiler": {
    "name": "solc",
    "version": "0.6.12+commit.27d51765.Emscripten.clang"
  },
  "schemaVersion": "3.3.3",
  "updatedAt": "2021-01-19T17:51:24.375Z",
  "devdoc": {
    "author": "Aave",
    "details": "Implements the configuration methods for the Aave protocol*",
    "events": {
      "ATokenUpgraded(address,address,address)": {
        "details": "Emitted when an aToken implementation is upgraded",
        "params": {
          "asset": "The address of the underlying asset of the reserve",
          "implementation": "The new aToken implementation*",
          "proxy": "The aToken proxy address"
        }
      },
      "BorrowingDisabledOnReserve(address)": {
        "details": "Emitted when borrowing is disabled on a reserve",
        "params": {
          "asset": "The address of the underlying asset of the reserve*"
        }
      },
      "BorrowingEnabledOnReserve(address,bool)": {
        "details": "Emitted when borrowing is enabled on a reserve",
        "params": {
          "asset": "The address of the underlying asset of the reserve",
          "stableRateEnabled": "True if stable rate borrowing is enabled, false otherwise*"
        }
      },
      "CollateralConfigurationChanged(address,uint256,uint256,uint256)": {
        "details": "Emitted when the collateralization risk parameters for the specified asset are updated.",
        "params": {
          "asset": "The address of the underlying asset of the reserve",
          "liquidationBonus": "The bonus liquidators receive to liquidate this asset*",
          "liquidationThreshold": "The threshold at which loans using this asset as collateral will be considered undercollateralized",
          "ltv": "The loan to value of the asset when used as collateral"
        }
      },
      "ReserveActivated(address)": {
        "details": "Emitted when a reserve is activated",
        "params": {
          "asset": "The address of the underlying asset of the reserve*"
        }
      },
      "ReserveDeactivated(address)": {
        "details": "Emitted when a reserve is deactivated",
        "params": {
          "asset": "The address of the underlying asset of the reserve*"
        }
      },
      "ReserveDecimalsChanged(address,uint256)": {
        "details": "Emitted when the reserve decimals are updated",
        "params": {
          "asset": "The address of the underlying asset of the reserve",
          "decimals": "The new decimals*"
        }
      },
      "ReserveFactorChanged(address,uint256)": {
        "details": "Emitted when a reserve factor is updated",
        "params": {
          "asset": "The address of the underlying asset of the reserve",
          "factor": "The new reserve factor*"
        }
      },
      "ReserveFrozen(address)": {
        "details": "Emitted when a reserve is frozen",
        "params": {
          "asset": "The address of the underlying asset of the reserve*"
        }
      },
      "ReserveInitialized(address,address,address,address,address)": {
        "details": "Emitted when a reserve is initialized.",
        "params": {
          "aToken": "The address of the associated aToken contract",
          "asset": "The address of the underlying asset of the reserve",
          "interestRateStrategyAddress": "The address of the interest rate strategy for the reserve*",
          "stableDebtToken": "The address of the associated stable rate debt token",
          "variableDebtToken": "The address of the associated variable rate debt token"
        }
      },
      "ReserveInterestRateStrategyChanged(address,address)": {
        "details": "Emitted when a reserve interest strategy contract is updated",
        "params": {
          "asset": "The address of the underlying asset of the reserve",
          "strategy": "The new address of the interest strategy contract*"
        }
      },
      "ReserveUnfrozen(address)": {
        "details": "Emitted when a reserve is unfrozen",
        "params": {
          "asset": "The address of the underlying asset of the reserve*"
        }
      },
      "StableDebtTokenUpgraded(address,address,address)": {
        "details": "Emitted when the implementation of a stable debt token is upgraded",
        "params": {
          "asset": "The address of the underlying asset of the reserve",
          "implementation": "The new aToken implementation*",
          "proxy": "The stable debt token proxy address"
        }
      },
      "StableRateDisabledOnReserve(address)": {
        "details": "Emitted when stable rate borrowing is disabled on a reserve",
        "params": {
          "asset": "The address of the underlying asset of the reserve*"
        }
      },
      "StableRateEnabledOnReserve(address)": {
        "details": "Emitted when stable rate borrowing is enabled on a reserve",
        "params": {
          "asset": "The address of the underlying asset of the reserve*"
        }
      },
      "VariableDebtTokenUpgraded(address,address,address)": {
        "details": "Emitted when the implementation of a variable debt token is upgraded",
        "params": {
          "asset": "The address of the underlying asset of the reserve",
          "implementation": "The new aToken implementation*",
          "proxy": "The variable debt token proxy address"
        }
      }
    },
    "kind": "dev",
    "methods": {
      "activateReserve(address)": {
        "details": "Activates a reserve",
        "params": {
          "asset": "The address of the underlying asset of the reserve*"
        }
      },
      "configureReserveAsCollateral(address,uint256,uint256,uint256)": {
        "details": "Configures the reserve collateralization parameters all the values are expressed in percentages with two decimals of precision. A valid value is 10000, which means 100.00%",
        "params": {
          "asset": "The address of the underlying asset of the reserve",
          "liquidationBonus": "The bonus liquidators receive to liquidate this asset. The values is always above 100%. A value of 105% means the liquidator will receive a 5% bonus*",
          "liquidationThreshold": "The threshold at which loans using this asset as collateral will be considered undercollateralized",
          "ltv": "The loan to value of the asset when used as collateral"
        }
      },
      "deactivateReserve(address)": {
        "details": "Deactivates a reserve",
        "params": {
          "asset": "The address of the underlying asset of the reserve*"
        }
      },
      "disableBorrowingOnReserve(address)": {
        "details": "Disables borrowing on a reserve",
        "params": {
          "asset": "The address of the underlying asset of the reserve*"
        }
      },
      "disableReserveStableRate(address)": {
        "details": "Disable stable rate borrowing on a reserve",
        "params": {
          "asset": "The address of the underlying asset of the reserve*"
        }
      },
      "enableBorrowingOnReserve(address,bool)": {
        "details": "Enables borrowing on a reserve",
        "params": {
          "asset": "The address of the underlying asset of the reserve",
          "stableBorrowRateEnabled": "True if stable borrow rate needs to be enabled by default on this reserve*"
        }
      },
      "enableReserveStableRate(address)": {
        "details": "Enable stable rate borrowing on a reserve",
        "params": {
          "asset": "The address of the underlying asset of the reserve*"
        }
      },
      "freezeReserve(address)": {
        "details": "Freezes a reserve. A frozen reserve doesn't allow any new deposit, borrow or rate swap  but allows repayments, liquidations, rate rebalances and withdrawals",
        "params": {
          "asset": "The address of the underlying asset of the reserve*"
        }
      },
      "initReserve(address,address,address,uint8,address)": {
        "details": "Initializes a reserve",
        "params": {
          "aTokenImpl": "The address of the aToken contract implementation",
          "interestRateStrategyAddress": "The address of the interest rate strategy contract for this reserve*",
          "stableDebtTokenImpl": "The address of the stable debt token contract",
          "underlyingAssetDecimals": "The decimals of the reserve underlying asset",
          "variableDebtTokenImpl": "The address of the variable debt token contract"
        }
      },
      "setPoolPause(bool)": {
        "details": "pauses or unpauses all the actions of the protocol, including aToken transfers",
        "params": {
          "val": "true if protocol needs to be paused, false otherwise*"
        }
      },
      "setReserveFactor(address,uint256)": {
        "details": "Updates the reserve factor of a reserve",
        "params": {
          "asset": "The address of the underlying asset of the reserve",
          "reserveFactor": "The new reserve factor of the reserve*"
        }
      },
      "setReserveInterestRateStrategyAddress(address,address)": {
        "details": "Sets the interest rate strategy of a reserve",
        "params": {
          "asset": "The address of the underlying asset of the reserve",
          "rateStrategyAddress": "The new address of the interest strategy contract*"
        }
      },
      "unfreezeReserve(address)": {
        "details": "Unfreezes a reserve",
        "params": {
          "asset": "The address of the underlying asset of the reserve*"
        }
      },
      "updateAToken(address,address)": {
        "details": "Updates the aToken implementation for the reserve",
        "params": {
          "asset": "The address of the underlying asset of the reserve to be updated",
          "implementation": "The address of the new aToken implementation*"
        }
      },
      "updateStableDebtToken(address,address)": {
        "details": "Updates the stable debt token implementation for the reserve",
        "params": {
          "asset": "The address of the underlying asset of the reserve to be updated",
          "implementation": "The address of the new aToken implementation*"
        }
      },
      "updateVariableDebtToken(address,address)": {
        "details": "Updates the variable debt token implementation for the asset",
        "params": {
          "asset": "The address of the underlying asset of the reserve to be updated",
          "implementation": "The address of the new aToken implementation*"
        }
      }
    },
    "title": "LendingPoolConfigurator contract",
    "version": 1
  },
  "userdoc": {
    "kind": "user",
    "methods": {},
    "version": 1
  }
}