{
  "contractName": "MockAggregator",
  "abi": [
    {
      "inputs": [
        {
          "internalType": "int256",
          "name": "_initialAnswer",
          "type": "int256"
        }
      ],
      "stateMutability": "nonpayable",
      "type": "constructor"
    },
    {
      "anonymous": false,
      "inputs": [
        {
          "indexed": true,
          "internalType": "int256",
          "name": "current",
          "type": "int256"
        },
        {
          "indexed": true,
          "internalType": "uint256",
          "name": "roundId",
          "type": "uint256"
        },
        {
          "indexed": false,
          "internalType": "uint256",
          "name": "timestamp",
          "type": "uint256"
        }
      ],
      "name": "AnswerUpdated",
      "type": "event"
    },
    {
      "inputs": [],
      "name": "latestAnswer",
      "outputs": [
        {
          "internalType": "int256",
          "name": "",
          "type": "int256"
        }
      ],
      "stateMutability": "view",
      "type": "function"
    },
    {
      "inputs": [],
      "name": "getTokenType",
      "outputs": [
        {
          "internalType": "uint256",
          "name": "",
          "type": "uint256"
        }
      ],
      "stateMutability": "view",
      "type": "function"
    }
  ],
  "bytecode": "0x608060405234801561001057600080fd5b506040516101153803806101158339818101604052602081101561003357600080fd5b5051600081815560408051428152905183917f0559884fd3a460db3073b7fc896cc77986f16e378210ded43186175bf646fc5f919081900360200190a35060968061007f6000396000f3fe6080604052348015600f57600080fd5b506004361060325760003560e01c806350d25bcd146037578063fcab181914604f575b600080fd5b603d6055565b60408051918252519081900360200190f35b603d605b565b60005490565b60019056fea26469706673582212205569132b064100cc9b9a3ddd73f91912f6c5ca9c2c46f46ae18e14077e85ba7264736f6c634300060c0033",
  "immutableReferences": {},
  "source": "// SPDX-License-Identifier: agpl-3.0\npragma solidity 0.6.12;\n\ncontract MockAggregator {\n  int256 private _latestAnswer;\n\n  event AnswerUpdated(int256 indexed current, uint256 indexed roundId, uint256 timestamp);\n\n  constructor(int256 _initialAnswer) public {\n    _latestAnswer = _initialAnswer;\n    emit AnswerUpdated(_initialAnswer, 0, now);\n  }\n\n  function latestAnswer() external view returns (int256) {\n    return _latestAnswer;\n  }\n\n  function getTokenType() external view returns (uint256) {\n    return 1;\n  }\n\n  // function getSubTokens() external view returns (address[] memory) {\n  // TODO: implement mock for when multiple subtokens. Maybe we need to create diff mock contract\n  // to call it from the migration for this case??\n  // }\n}\n",
  "sourcePath": "/home/conjohn/code/liquiditybot/contracts/aave/mocks/oracle/CLAggregators/MockAggregator.sol",
  "compiler": {
    "name": "solc",
    "version": "0.6.12+commit.27d51765.Emscripten.clang"
  },
  "schemaVersion": "3.3.3",
  "updatedAt": "2021-01-19T17:51:24.333Z",
  "devdoc": {
    "kind": "dev",
    "methods": {},
    "version": 1
  },
  "userdoc": {
    "kind": "user",
    "methods": {},
    "version": 1
  }
}