{
  "contractName": "SelfdestructTransfer",
  "abi": [
    {
      "inputs": [
        {
          "internalType": "address payable",
          "name": "to",
          "type": "address"
        }
      ],
      "name": "destroyAndTransfer",
      "outputs": [],
      "stateMutability": "payable",
      "type": "function"
    }
  ],
  "bytecode": "0x6080604052348015600f57600080fd5b5060888061001e6000396000f3fe608060405260043610601c5760003560e01c8063785e07b3146021575b600080fd5b604460048036036020811015603557600080fd5b50356001600160a01b03166046565b005b806001600160a01b0316fffea26469706673582212207ddcd855a591e5156e5a16e1eb3c6ae2f597b9da33efe108ec9d64ec7935eca464736f6c634300060c0033",
  "immutableReferences": {},
  "source": "// SPDX-License-Identifier: agpl-3.0\npragma solidity 0.6.12;\n\ncontract SelfdestructTransfer {\n  function destroyAndTransfer(address payable to) external payable {\n    selfdestruct(to);\n  }\n}\n",
  "sourcePath": "/home/conjohn/code/liquiditybot/contracts/aave/mocks/attacks/SefldestructTransfer.sol",
  "compiler": {
    "name": "solc",
    "version": "0.6.12+commit.27d51765.Emscripten.clang"
  },
  "schemaVersion": "3.3.3",
  "updatedAt": "2021-01-19T17:51:24.329Z",
  "devdoc": {
    "kind": "dev",
    "methods": {},
    "version": 1
  },
  "userdoc": {
    "kind": "user",
    "methods": {},
    "version": 1
  }
}