{
  "contractName": "UniswapRepayAdapter",
  "abi": [
    {
      "inputs": [
        {
          "internalType": "contract ILendingPoolAddressesProvider",
          "name": "addressesProvider",
          "type": "address"
        },
        {
          "internalType": "contract IUniswapV2Router02",
          "name": "uniswapRouter",
          "type": "address"
        },
        {
          "internalType": "address",
          "name": "wethAddress",
          "type": "address"
        }
      ],
      "stateMutability": "nonpayable",
      "type": "constructor"
    },
    {
      "anonymous": false,
      "inputs": [
        {
          "indexed": true,
          "internalType": "address",
          "name": "previousOwner",
          "type": "address"
        },
        {
          "indexed": true,
          "internalType": "address",
          "name": "newOwner",
          "type": "address"
        }
      ],
      "name": "OwnershipTransferred",
      "type": "event"
    },
    {
      "anonymous": false,
      "inputs": [
        {
          "indexed": false,
          "internalType": "address",
          "name": "fromAsset",
          "type": "address"
        },
        {
          "indexed": false,
          "internalType": "address",
          "name": "toAsset",
          "type": "address"
        },
        {
          "indexed": false,
          "internalType": "uint256",
          "name": "fromAmount",
          "type": "uint256"
        },
        {
          "indexed": false,
          "internalType": "uint256",
          "name": "receivedAmount",
          "type": "uint256"
        }
      ],
      "name": "Swapped",
      "type": "event"
    },
    {
      "inputs": [],
      "name": "ADDRESSES_PROVIDER",
      "outputs": [
        {
          "internalType": "contract ILendingPoolAddressesProvider",
          "name": "",
          "type": "address"
        }
      ],
      "stateMutability": "view",
      "type": "function"
    },
    {
      "inputs": [],
      "name": "FLASHLOAN_PREMIUM_TOTAL",
      "outputs": [
        {
          "internalType": "uint256",
          "name": "",
          "type": "uint256"
        }
      ],
      "stateMutability": "view",
      "type": "function"
    },
    {
      "inputs": [],
      "name": "LENDING_POOL",
      "outputs": [
        {
          "internalType": "contract ILendingPool",
          "name": "",
          "type": "address"
        }
      ],
      "stateMutability": "view",
      "type": "function"
    },
    {
      "inputs": [],
      "name": "MAX_SLIPPAGE_PERCENT",
      "outputs": [
        {
          "internalType": "uint256",
          "name": "",
          "type": "uint256"
        }
      ],
      "stateMutability": "view",
      "type": "function"
    },
    {
      "inputs": [],
      "name": "ORACLE",
      "outputs": [
        {
          "internalType": "contract IPriceOracleGetter",
          "name": "",
          "type": "address"
        }
      ],
      "stateMutability": "view",
      "type": "function"
    },
    {
      "inputs": [],
      "name": "UNISWAP_ROUTER",
      "outputs": [
        {
          "internalType": "contract IUniswapV2Router02",
          "name": "",
          "type": "address"
        }
      ],
      "stateMutability": "view",
      "type": "function"
    },
    {
      "inputs": [],
      "name": "USD_ADDRESS",
      "outputs": [
        {
          "internalType": "address",
          "name": "",
          "type": "address"
        }
      ],
      "stateMutability": "view",
      "type": "function"
    },
    {
      "inputs": [],
      "name": "WETH_ADDRESS",
      "outputs": [
        {
          "internalType": "address",
          "name": "",
          "type": "address"
        }
      ],
      "stateMutability": "view",
      "type": "function"
    },
    {
      "inputs": [
        {
          "internalType": "uint256",
          "name": "amountOut",
          "type": "uint256"
        },
        {
          "internalType": "address",
          "name": "reserveIn",
          "type": "address"
        },
        {
          "internalType": "address",
          "name": "reserveOut",
          "type": "address"
        }
      ],
      "name": "getAmountsIn",
      "outputs": [
        {
          "internalType": "uint256",
          "name": "",
          "type": "uint256"
        },
        {
          "internalType": "uint256",
          "name": "",
          "type": "uint256"
        },
        {
          "internalType": "uint256",
          "name": "",
          "type": "uint256"
        },
        {
          "internalType": "uint256",
          "name": "",
          "type": "uint256"
        },
        {
          "internalType": "address[]",
          "name": "",
          "type": "address[]"
        }
      ],
      "stateMutability": "view",
      "type": "function"
    },
    {
      "inputs": [
        {
          "internalType": "uint256",
          "name": "amountIn",
          "type": "uint256"
        },
        {
          "internalType": "address",
          "name": "reserveIn",
          "type": "address"
        },
        {
          "internalType": "address",
          "name": "reserveOut",
          "type": "address"
        }
      ],
      "name": "getAmountsOut",
      "outputs": [
        {
          "internalType": "uint256",
          "name": "",
          "type": "uint256"
        },
        {
          "internalType": "uint256",
          "name": "",
          "type": "uint256"
        },
        {
          "internalType": "uint256",
          "name": "",
          "type": "uint256"
        },
        {
          "internalType": "uint256",
          "name": "",
          "type": "uint256"
        },
        {
          "internalType": "address[]",
          "name": "",
          "type": "address[]"
        }
      ],
      "stateMutability": "view",
      "type": "function"
    },
    {
      "inputs": [],
      "name": "owner",
      "outputs": [
        {
          "internalType": "address",
          "name": "",
          "type": "address"
        }
      ],
      "stateMutability": "view",
      "type": "function"
    },
    {
      "inputs": [],
      "name": "renounceOwnership",
      "outputs": [],
      "stateMutability": "nonpayable",
      "type": "function"
    },
    {
      "inputs": [
        {
          "internalType": "contract IERC20",
          "name": "token",
          "type": "address"
        }
      ],
      "name": "rescueTokens",
      "outputs": [],
      "stateMutability": "nonpayable",
      "type": "function"
    },
    {
      "inputs": [
        {
          "internalType": "address",
          "name": "newOwner",
          "type": "address"
        }
      ],
      "name": "transferOwnership",
      "outputs": [],
      "stateMutability": "nonpayable",
      "type": "function"
    },
    {
      "inputs": [
        {
          "internalType": "address[]",
          "name": "assets",
          "type": "address[]"
        },
        {
          "internalType": "uint256[]",
          "name": "amounts",
          "type": "uint256[]"
        },
        {
          "internalType": "uint256[]",
          "name": "premiums",
          "type": "uint256[]"
        },
        {
          "internalType": "address",
          "name": "initiator",
          "type": "address"
        },
        {
          "internalType": "bytes",
          "name": "params",
          "type": "bytes"
        }
      ],
      "name": "executeOperation",
      "outputs": [
        {
          "internalType": "bool",
          "name": "",
          "type": "bool"
        }
      ],
      "stateMutability": "nonpayable",
      "type": "function"
    },
    {
      "inputs": [
        {
          "internalType": "address",
          "name": "collateralAsset",
          "type": "address"
        },
        {
          "internalType": "address",
          "name": "debtAsset",
          "type": "address"
        },
        {
          "internalType": "uint256",
          "name": "collateralAmount",
          "type": "uint256"
        },
        {
          "internalType": "uint256",
          "name": "debtRepayAmount",
          "type": "uint256"
        },
        {
          "internalType": "uint256",
          "name": "debtRateMode",
          "type": "uint256"
        },
        {
          "components": [
            {
              "internalType": "uint256",
              "name": "amount",
              "type": "uint256"
            },
            {
              "internalType": "uint256",
              "name": "deadline",
              "type": "uint256"
            },
            {
              "internalType": "uint8",
              "name": "v",
              "type": "uint8"
            },
            {
              "internalType": "bytes32",
              "name": "r",
              "type": "bytes32"
            },
            {
              "internalType": "bytes32",
              "name": "s",
              "type": "bytes32"
            }
          ],
          "internalType": "struct IBaseUniswapAdapter.PermitSignature",
          "name": "permitSignature",
          "type": "tuple"
        },
        {
          "internalType": "bool",
          "name": "useEthPath",
          "type": "bool"
        }
      ],
      "name": "swapAndRepay",
      "outputs": [],
      "stateMutability": "nonpayable",
      "type": "function"
    }
  ],
  "bytecode": "0x6101206040523480156200001257600080fd5b506040516200347f3803806200347f8339810160408190526200003591620001fd565b82828282806001600160a01b03166080816001600160a01b031660601b81525050806001600160a01b0316630261bf8b6040518163ffffffff1660e01b815260040160206040518083038186803b1580156200009057600080fd5b505afa158015620000a5573d6000803e3d6000fd5b505050506040513d601f19601f82011682018060405250810190620000cb9190620001d7565b60601b6001600160601b03191660a052506000620000e8620001d3565b600080546001600160a01b0319166001600160a01b0383169081178255604051929350917f8be0079c531659141344cd1fd0a4f28419497f9722a3daafe3b4186f6b6457e0908290a350826001600160a01b031663fca513a86040518163ffffffff1660e01b815260040160206040518083038186803b1580156200016c57600080fd5b505afa15801562000181573d6000803e3d6000fd5b505050506040513d601f19601f82011682018060405250810190620001a79190620001d7565b6001600160601b0319606091821b811660e05292811b8316610100521b1660c052506200026992505050565b3390565b600060208284031215620001e9578081fd5b8151620001f68162000250565b9392505050565b60008060006060848603121562000212578182fd5b83516200021f8162000250565b6020850151909350620002328162000250565b6040850151909250620002458162000250565b809150509250925092565b6001600160a01b03811681146200026657600080fd5b50565b60805160601c60a05160601c60c05160601c60e05160601c6101005160601c61313b6200034460003980610601528061100c528061110052806116ae5280611936528061196b5280611aff528061201c528061210d5250806103a252806122ae52508061034f5280610ee65280610f235280610f8d528061159b52806119e95280611ef65280611f335280611f9d52508061045f528061057c5280610817528061084c52806108885280610aa75280610adc5280610b9a5280610db05280610ddb528061143252806117fc525080610373525061313b6000f3fe608060405234801561001057600080fd5b50600436106100ff5760003560e01c8063920f5c8411610097578063cdf58cd611610066578063cdf58cd6146101c8578063d8264920146101db578063e6813563146101e3578063f2fde38b146101f6576100ff565b8063920f5c84146101745780639d1211bf14610194578063b4dcfc771461019c578063baf7fa99146101a4576100ff565b806332e4b286116100d357806332e4b2861461015457806338013f021461015c578063715018a6146101645780638da5cb5b1461016c576100ff565b8062ae3bf814610104578063040141e5146101195780630542975c14610137578063074b2e431461013f575b600080fd5b6101176101123660046126c4565b610209565b005b61012161034d565b60405161012e9190612bc4565b60405180910390f35b610121610371565b610147610395565b60405161012e9190612fc9565b61014761039a565b6101216103a0565b6101176103c4565b610121610443565b6101876101823660046127ee565b610452565b60405161012e9190612ce7565b610121610562565b61012161057a565b6101b76101b2366004612b08565b61059e565b60405161012e959493929190613027565b6101b76101d6366004612b08565b6105e4565b6101216105ff565b6101176101f1366004612769565b610623565b6101176102043660046126c4565b610924565b6102116109da565b6000546001600160a01b039081169116146102475760405162461bcd60e51b815260040161023e90612e92565b60405180910390fd5b806001600160a01b031663a9059cbb61025e610443565b6040516370a0823160e01b81526001600160a01b038516906370a082319061028a903090600401612bc4565b60206040518083038186803b1580156102a257600080fd5b505afa1580156102b6573d6000803e3d6000fd5b505050506040513d601f19601f820116820180604052508101906102da9190612af0565b6040518363ffffffff1660e01b81526004016102f7929190612c80565b602060405180830381600087803b15801561031157600080fd5b505af1158015610325573d6000803e3d6000fd5b505050506040513d601f19601f820116820180604052508101906103499190612980565b5050565b7f000000000000000000000000000000000000000000000000000000000000000081565b7f000000000000000000000000000000000000000000000000000000000000000081565b600981565b610bb881565b7f000000000000000000000000000000000000000000000000000000000000000081565b6103cc6109da565b6000546001600160a01b039081169116146103f95760405162461bcd60e51b815260040161023e90612e92565b600080546040516001600160a01b03909116907f8be0079c531659141344cd1fd0a4f28419497f9722a3daafe3b4186f6b6457e0908390a3600080546001600160a01b0319169055565b6000546001600160a01b031690565b6000336001600160a01b037f0000000000000000000000000000000000000000000000000000000000000000161461049c5760405162461bcd60e51b815260040161023e90612d25565b6104a46124f2565b6104e384848080601f0160208091040260200160405190810160405280939291908181526020018383808284376000920191909152506109de92505050565b905061055181600001518c8c60008181106104fa57fe5b905060200201602081019061050f91906126c4565b8b8b600081811061051c57fe5b90506020020135846020015185604001518a8d8d600081811061053b57fe5b9050602002013588606001518960800151610a85565b5060019a9950505050505050505050565b7310f7fc1f91ba351f9c629c5947ad69bd03c05b9681565b7f000000000000000000000000000000000000000000000000000000000000000081565b60008060008060606105ae612530565b6105b988888b610e22565b8051602082015160408301516060840151608090940151929d919c509a509198509650945050505050565b60008060008060606105f4612530565b6105b988888b61130f565b7f000000000000000000000000000000000000000000000000000000000000000081565b61062b61255f565b61063488611413565b905061063e61255f565b61064788611413565b90506000600186600281111561065957fe5b600281111561066457fe5b146106745781610120015161067b565b8161010001515b90506000816001600160a01b03166370a08231336040518263ffffffff1660e01b81526004016106ab9190612bc4565b60206040518083038186803b1580156106c357600080fd5b505afa1580156106d7573d6000803e3d6000fd5b505050506040513d601f19601f820116820180604052508101906106fb9190612af0565b905060008189111561070d578161070f565b885b90508a6001600160a01b03168c6001600160a01b0316146107ec57898982101561074a576107478a61074183856114be565b906114ff565b90505b60606107588e8e858b611541565b9050818160008151811061076857fe5b6020026020010151111561078e5760405162461bcd60e51b815260040161023e90612ec7565b6107c38e8860e0015133846000815181106107a557fe5b60200260200101518d8036038101906107be919061299c565b611743565b6107e48e8e836000815181106107d557fe5b6020026020010151868c61188f565b505050610808565b6108088c8660e0015133848b8036038101906107be919061299c565b61083d6001600160a01b038c167f00000000000000000000000000000000000000000000000000000000000000006000611c23565b6108716001600160a01b038c167f000000000000000000000000000000000000000000000000000000000000000083611c23565b60405163573ade8160e01b81526001600160a01b037f0000000000000000000000000000000000000000000000000000000000000000169063573ade81906108c3908e9085908d903390600401612cbc565b602060405180830381600087803b1580156108dd57600080fd5b505af11580156108f1573d6000803e3d6000fd5b505050506040513d601f19601f820116820180604052508101906109159190612af0565b50505050505050505050505050565b61092c6109da565b6000546001600160a01b039081169116146109595760405162461bcd60e51b815260040161023e90612e92565b6001600160a01b03811661097f5760405162461bcd60e51b815260040161023e90612d5c565b600080546040516001600160a01b03808516939216917f8be0079c531659141344cd1fd0a4f28419497f9722a3daafe3b4186f6b6457e091a3600080546001600160a01b0319166001600160a01b0392909216919091179055565b3390565b6109e66124f2565b60008060008060008060008060008a806020019051810190610a0891906126e0565b9850985098509850985098509850985098506040518060a001604052808a6001600160a01b031681526020018981526020018881526020016040518060a001604052808981526020018881526020018760ff1681526020018681526020018581525081526020018215158152509950505050505050505050919050565b610a8d61255f565b610a968a611413565b9050610acd6001600160a01b038a167f00000000000000000000000000000000000000000000000000000000000000006000611c23565b610b016001600160a01b038a167f00000000000000000000000000000000000000000000000000000000000000008a611c23565b6040516370a0823160e01b81526000906001600160a01b038b16906370a0823190610b30903090600401612bc4565b60206040518083038186803b158015610b4857600080fd5b505afa158015610b5c573d6000803e3d6000fd5b505050506040513d601f19601f82011682018060405250810190610b809190612af0565b60405163573ade8160e01b81529091506001600160a01b037f0000000000000000000000000000000000000000000000000000000000000000169063573ade8190610bd5908d908d908c908c90600401612cbc565b602060405180830381600087803b158015610bef57600080fd5b505af1158015610c03573d6000803e3d6000fd5b505050506040513d601f19601f82011682018060405250810190610c279190612af0565b506040516370a0823160e01b8152610caf906001600160a01b038c16906370a0823190610c58903090600401612bc4565b60206040518083038186803b158015610c7057600080fd5b505afa158015610c84573d6000803e3d6000fd5b505050506040513d601f19601f82011682018060405250810190610ca89190612af0565b8290611d22565b9050896001600160a01b03168b6001600160a01b031614610d85578789821015610ce457610ce18a61074183856114be565b90505b6000610cf08388611d64565b90506060610d008e8e8489611541565b90508281600081518110610d1057fe5b60200260200101511115610d365760405162461bcd60e51b815260040161023e90612ec7565b610d5b8e8660e001518b84600081518110610d4d57fe5b60200260200101518b611743565b610d7c8e8e83600081518110610d6d57fe5b6020026020010151858a61188f565b50505050610da1565b60e0820151610da1908c9088610d9b858a611d64565b88611743565b610dd66001600160a01b038b167f00000000000000000000000000000000000000000000000000000000000000006000611c23565b610e157f0000000000000000000000000000000000000000000000000000000000000000610e048b88611d64565b6001600160a01b038d169190611c23565b5050505050505050505050565b610e2a612530565b6000610e47610e406127106107418660096114be565b8490611d22565b6040805160028082526060808301845293945090916020830190803683370190505090508581600081518110610e7957fe5b60200260200101906001600160a01b031690816001600160a01b0316815250508481600181518110610ea757fe5b6001600160a01b0392909216602092830291909101820152604080516003808252608082019092526060928392839291820183803683370190505090507f00000000000000000000000000000000000000000000000000000000000000006001600160a01b0316896001600160a01b031614158015610f5857507f00000000000000000000000000000000000000000000000000000000000000006001600160a01b0316886001600160a01b031614155b156110c4578881600081518110610f6b57fe5b60200260200101906001600160a01b031690816001600160a01b0316815250507f000000000000000000000000000000000000000000000000000000000000000081600181518110610fb957fe5b60200260200101906001600160a01b031690816001600160a01b0316815250508781600281518110610fe757fe5b6001600160a01b03928316602091820292909201015260405163d06ca61f60e01b81527f00000000000000000000000000000000000000000000000000000000000000009091169063d06ca61f906110459088908590600401612fd2565b60006040518083038186803b15801561105d57600080fd5b505afa92505050801561109257506040513d6000823e601f3d908101601f1916820160405261108f91908101906128eb565b60015b6110bc576040805160038082526080820190925290602082016060803683370190505091506110bf565b91505b6110e6565b6040805160038082526080820190925290602082016060803683370190505091505b60405163d06ca61f60e01b81526000906001600160a01b037f0000000000000000000000000000000000000000000000000000000000000000169063d06ca61f906111379089908990600401612fd2565b60006040518083038186803b15801561114f57600080fd5b505afa92505050801561118457506040513d6000823e601f3d908101601f1916820160405261118191908101906128eb565b60015b6111c4576040805160028082526060820183529091602083019080368337019050509350826002815181106111b557fe5b6020026020010151905061122a565b809450846001815181106111d457fe5b6020026020010151846002815181106111e957fe5b602002602001015111611210578460018151811061120357fe5b6020026020010151611226565b8360028151811061121d57fe5b60200260200101515b9150505b60006112358b611d89565b905060006112428b611d89565b9050600061127761125785600a86900a6114be565b610741600a85900a6112718d670de0b6b3a76400006114be565b906114be565b90506040518060a0016040528085815260200182815260200161129b8f8e87611e05565b81526020016112ab8e8786611e05565b815260200185156112de57886001815181106112c357fe5b602002602001015186146112d757866112d9565b895b6112fc565b60408051600280825260608201835290916020830190803683375050505b90529d9c50505050505050505050505050565b611317612530565b606080611325868686611e54565b91509150600061137f61135c61271061074160098760008151811061134657fe5b60200260200101516114be90919063ffffffff16565b8460008151811061136957fe5b6020026020010151611d6490919063ffffffff16565b9050600061138c88611d89565b9050600061139988611d89565b905060006113c86113ae85600a85900a6114be565b610741600a86900a6112718c670de0b6b3a76400006114be565b90506040518060a001604052808581526020018281526020016113ec8c8787611e05565b81526020016113fc8b8b86611e05565b815260200195909552509298975050505050505050565b61141b61255f565b6040516335ea6a7560e01b81526001600160a01b037f000000000000000000000000000000000000000000000000000000000000000016906335ea6a7590611467908590600401612bc4565b6101806040518083038186803b15801561148057600080fd5b505afa158015611494573d6000803e3d6000fd5b505050506040513d601f19601f820116820180604052508101906114b891906129f5565b92915050565b6000826114cd575060006114b8565b828202828482816114da57fe5b04146114f85760405162461bcd60e51b815260040161023e90612e51565b9392505050565b60006114f883836040518060400160405280601a81526020017f536166654d6174683a206469766973696f6e206279207a65726f000000000000815250612211565b606080821561161a57604080516003808252608082019092529060208201606080368337019050509050858160008151811061157957fe5b60200260200101906001600160a01b031690816001600160a01b0316815250507f0000000000000000000000000000000000000000000000000000000000000000816001815181106115c757fe5b60200260200101906001600160a01b031690816001600160a01b03168152505084816002815181106115f557fe5b60200260200101906001600160a01b031690816001600160a01b031681525050611697565b6040805160028082526060820183529091602083019080368337019050509050858160008151811061164857fe5b60200260200101906001600160a01b031690816001600160a01b031681525050848160018151811061167657fe5b60200260200101906001600160a01b031690816001600160a01b0316815250505b6040516307c0329d60e21b81526001600160a01b037f00000000000000000000000000000000000000000000000000000000000000001690631f00ca74906116e59087908590600401612fd2565b60006040518083038186803b1580156116fd57600080fd5b505afa158015611711573d6000803e3d6000fd5b505050506040513d6000823e601f3d908101601f1916820160405261173991908101906128eb565b9695505050505050565b61174c81612248565b156117d057836001600160a01b031663d505accf8430846000015185602001518660400151876060015188608001516040518863ffffffff1660e01b815260040161179d9796959493929190612c3f565b600060405180830381600087803b1580156117b757600080fd5b505af11580156117cb573d6000803e3d6000fd5b505050505b6117e56001600160a01b03851684308561226d565b604051631a4ca37b60e21b81526001600160a01b037f000000000000000000000000000000000000000000000000000000000000000016906369328dec9061183590889086903090600401612c99565b602060405180830381600087803b15801561184f57600080fd5b505af1158015611863573d6000803e3d6000fd5b505050506040513d601f19601f820116820180604052508101906118879190612af0565b505050505050565b60008061189b87611d89565b905060006118a887611d89565b905060006118b589612294565b905060006118c289612294565b905060006119066118d7612710610bb8611d64565b6119006118e886600a89900a6114be565b6107416118f987600a8c900a6114be565b8d906114be565b90612333565b90508089106119275760405162461bcd60e51b815260040161023e90612e0e565b61195c6001600160a01b038c167f00000000000000000000000000000000000000000000000000000000000000006000611c23565b6119906001600160a01b038c167f00000000000000000000000000000000000000000000000000000000000000008b611c23565b60608715611a68576040805160038082526080820190925290602082016060803683370190505090508b816000815181106119c757fe5b60200260200101906001600160a01b031690816001600160a01b0316815250507f000000000000000000000000000000000000000000000000000000000000000081600181518110611a1557fe5b60200260200101906001600160a01b031690816001600160a01b0316815250508a81600281518110611a4357fe5b60200260200101906001600160a01b031690816001600160a01b031681525050611ae5565b60408051600280825260608201835290916020830190803683370190505090508b81600081518110611a9657fe5b60200260200101906001600160a01b031690816001600160a01b0316815250508a81600181518110611ac457fe5b60200260200101906001600160a01b031690816001600160a01b0316815250505b604051634401edf760e11b81526060906001600160a01b037f00000000000000000000000000000000000000000000000000000000000000001690638803dbee90611b3c908d908f90879030904290600401612feb565b600060405180830381600087803b158015611b5657600080fd5b505af1158015611b6a573d6000803e3d6000fd5b505050506040513d6000823e601f3d908101601f19168201604052611b9291908101906128eb565b90507fa078c4190abe07940190effc1846be0ccf03ad6007bc9e93f9697d0b460befbb8d8d83600081518110611bc457fe5b602002602001015184600186510381518110611bdc57fe5b6020026020010151604051611bf49493929190612c16565b60405180910390a180600081518110611c0957fe5b602002602001015197505050505050505095945050505050565b801580611cab5750604051636eb1769f60e11b81526001600160a01b0384169063dd62ed3e90611c599030908690600401612bd8565b60206040518083038186803b158015611c7157600080fd5b505afa158015611c85573d6000803e3d6000fd5b505050506040513d601f19601f82011682018060405250810190611ca99190612af0565b155b611cc75760405162461bcd60e51b815260040161023e90612f3c565b611d1d8363095ea7b360e01b8484604051602401611ce6929190612c80565b60408051601f198184030181529190526020810180516001600160e01b03166001600160e01b0319909316929092179091526123a5565b505050565b60006114f883836040518060400160405280601e81526020017f536166654d6174683a207375627472616374696f6e206f766572666c6f77000081525061248a565b6000828201838110156114f85760405162461bcd60e51b815260040161023e90612da2565b6000816001600160a01b031663313ce5676040518163ffffffff1660e01b815260040160206040518083038186803b158015611dc457600080fd5b505afa158015611dd8573d6000803e3d6000fd5b505050506040513d601f19601f82011682018060405250810190611dfc9190612b49565b60ff1692915050565b600080611e257310f7fc1f91ba351f9c629c5947ad69bd03c05b96612294565b90506000611e3286612294565b9050611739670de0b6b3a764000061074184611271600a89900a838b886114be565b6040805160028082526060828101909352829182918160200160208202803683370190505090508581600081518110611e8957fe5b60200260200101906001600160a01b031690816001600160a01b0316815250508481600181518110611eb757fe5b6001600160a01b0392909216602092830291909101820152604080516003808252608082019092526060928392839291820183803683370190505090507f00000000000000000000000000000000000000000000000000000000000000006001600160a01b0316896001600160a01b031614158015611f6857507f00000000000000000000000000000000000000000000000000000000000000006001600160a01b0316886001600160a01b031614155b156120d4578881600081518110611f7b57fe5b60200260200101906001600160a01b031690816001600160a01b0316815250507f000000000000000000000000000000000000000000000000000000000000000081600181518110611fc957fe5b60200260200101906001600160a01b031690816001600160a01b0316815250508781600281518110611ff757fe5b6001600160a01b0392831660209182029290920101526040516307c0329d60e21b81527f000000000000000000000000000000000000000000000000000000000000000090911690631f00ca7490612055908a908590600401612fd2565b60006040518083038186803b15801561206d57600080fd5b505afa9250505080156120a257506040513d6000823e601f3d908101601f1916820160405261209f91908101906128eb565b60015b6120cc576040805160038082526080820190925290602082016060803683370190505091506120cf565b91505b6120f6565b6040805160038082526080820190925290602082016060803683370190505091505b6040516307c0329d60e21b81526001600160a01b037f00000000000000000000000000000000000000000000000000000000000000001690631f00ca7490612144908a908890600401612fd2565b60006040518083038186803b15801561215c57600080fd5b505afa92505050801561219157506040513d6000823e601f3d908101601f1916820160405261218e91908101906128eb565b60015b6121a2579094509250612209915050565b809350836000815181106121b257fe5b6020026020010151836000815181106121c757fe5b60200260200101511080156121f15750826000815181106121e457fe5b6020026020010151600014155b6121fc5783856121ff565b82825b9650965050505050505b935093915050565b600081836122325760405162461bcd60e51b815260040161023e9190612cf2565b50600083858161223e57fe5b0495945050505050565b6000816040015160ff16826020015114801561226657506020820151155b1592915050565b61228e846323b872dd60e01b858585604051602401611ce693929190612bf2565b50505050565b60405163b3596f0760e01b81526000906001600160a01b037f0000000000000000000000000000000000000000000000000000000000000000169063b3596f07906122e3908590600401612bc4565b60206040518083038186803b1580156122fb57600080fd5b505afa15801561230f573d6000803e3d6000fd5b505050506040513d601f19601f820116820180604052508101906114b89190612af0565b6000821580612340575081155b1561234d575060006114b8565b81611388198161235957fe5b0483111560405180604001604052806002815260200161068760f31b815250906123965760405162461bcd60e51b815260040161023e9190612cf2565b50506127109102611388010490565b6123b7826001600160a01b03166124b6565b6123d35760405162461bcd60e51b815260040161023e90612f92565b60006060836001600160a01b0316836040516123ef9190612ba8565b6000604051808303816000865af19150503d806000811461242c576040519150601f19603f3d011682016040523d82523d6000602084013e612431565b606091505b5091509150816124535760405162461bcd60e51b815260040161023e90612dd9565b80511561228e578080602001905181019061246e9190612980565b61228e5760405162461bcd60e51b815260040161023e90612ef2565b600081848411156124ae5760405162461bcd60e51b815260040161023e9190612cf2565b505050900390565b6000813f7fc5d2460186f7233c927e7db2dcc703c0e500b653ca82273b7bfad8045d85a4708181148015906124ea57508115155b949350505050565b6040518060a0016040528060006001600160a01b0316815260200160008152602001600081526020016125236125ca565b8152600060209091015290565b6040518060a0016040528060008152602001600081526020016000815260200160008152602001606081525090565b6040518061018001604052806125736125f8565b815260006020820181905260408201819052606082018190526080820181905260a0820181905260c0820181905260e082018190526101008201819052610120820181905261014082018190526101609091015290565b6040805160a08101825260008082526020820181905291810182905260608101829052608081019190915290565b6040518060200160405280600081525090565b80516114b8816130d0565b60008083601f840112612627578182fd5b50813567ffffffffffffffff81111561263e578182fd5b602083019150836020808302850101111561265857600080fd5b9250929050565b600060208284031215612670578081fd5b61267a602061305d565b9151825250919050565b80516fffffffffffffffffffffffffffffffff811681146114b857600080fd5b805164ffffffffff811681146114b857600080fd5b80516114b8816130f6565b6000602082840312156126d5578081fd5b81356114f8816130d0565b60008060008060008060008060006101208a8c0312156126fe578485fd5b8951612709816130d0565b8099505060208a0151975060408a0151965060608a0151955060808a0151945060a08a0151612737816130f6565b8094505060c08a0151925060e08a015191506101008a0151612758816130e8565b809150509295985092959850929598565b6000806000806000806000878903610160811215612785578182fd5b8835612790816130d0565b975060208901356127a0816130d0565b965060408901359550606089013594506080890135935060a0609f19820112156127c8578182fd5b5060a0880191506101408801356127de816130e8565b8091505092959891949750929550565b600080600080600080600080600060a08a8c03121561280b578283fd5b893567ffffffffffffffff80821115612822578485fd5b61282e8d838e01612616565b909b50995060208c0135915080821115612846578485fd5b6128528d838e01612616565b909950975060408c013591508082111561286a578485fd5b6128768d838e01612616565b909750955060608c0135915061288b826130d0565b90935060808b013590808211156128a0578384fd5b818c0191508c601f8301126128b3578384fd5b8135818111156128c1578485fd5b8d60208285010111156128d2578485fd5b6020830194508093505050509295985092959850929598565b600060208083850312156128fd578182fd5b825167ffffffffffffffff811115612913578283fd5b8301601f81018513612923578283fd5b805161293661293182613084565b61305d565b8181528381019083850185840285018601891015612952578687fd5b8694505b83851015612974578051835260019490940193918501918501612956565b50979650505050505050565b600060208284031215612991578081fd5b81516114f8816130e8565b600060a082840312156129ad578081fd5b6129b760a061305d565b823581526020830135602082015260408301356129d3816130f6565b6040820152606083810135908201526080928301359281019290925250919050565b6000610180808385031215612a08578182fd5b612a118161305d565b9050612a1d848461265f565b8152612a2c8460208501612684565b6020820152612a3e8460408501612684565b6040820152612a508460608501612684565b6060820152612a628460808501612684565b6080820152612a748460a08501612684565b60a0820152612a868460c085016126a4565b60c0820152612a988460e0850161260b565b60e0820152610100612aac8582860161260b565b90820152610120612abf8585830161260b565b90820152610140612ad28585830161260b565b90820152610160612ae5858583016126b9565b908201529392505050565b600060208284031215612b01578081fd5b5051919050565b600080600060608486031215612b1c578081fd5b833592506020840135612b2e816130d0565b91506040840135612b3e816130d0565b809150509250925092565b600060208284031215612b5a578081fd5b81516114f8816130f6565b6000815180845260208085019450808401835b83811015612b9d5781516001600160a01b031687529582019590820190600101612b78565b509495945050505050565b60008251612bba8184602087016130a4565b9190910192915050565b6001600160a01b0391909116815260200190565b6001600160a01b0392831681529116602082015260400190565b6001600160a01b039384168152919092166020820152604081019190915260600190565b6001600160a01b0394851681529290931660208301526040820152606081019190915260800190565b6001600160a01b0397881681529590961660208601526040850193909352606084019190915260ff16608083015260a082015260c081019190915260e00190565b6001600160a01b03929092168252602082015260400190565b6001600160a01b0393841681526020810192909252909116604082015260600190565b6001600160a01b03948516815260208101939093526040830191909152909116606082015260800190565b901515815260200190565b6000602082528251806020840152612d118160408501602087016130a4565b601f01601f19169190910160400192915050565b6020808252601b908201527f43414c4c45525f4d5553545f42455f4c454e44494e475f504f4f4c0000000000604082015260600190565b60208082526026908201527f4f776e61626c653a206e6577206f776e657220697320746865207a65726f206160408201526564647265737360d01b606082015260800190565b6020808252601b908201527f536166654d6174683a206164646974696f6e206f766572666c6f770000000000604082015260600190565b6020808252818101527f5361666545524332303a206c6f772d6c6576656c2063616c6c206661696c6564604082015260600190565b60208082526023908201527f6d6178416d6f756e74546f5377617020657863656564206d617820736c69707060408201526261676560e81b606082015260800190565b60208082526021908201527f536166654d6174683a206d756c7469706c69636174696f6e206f766572666c6f6040820152607760f81b606082015260800190565b6020808252818101527f4f776e61626c653a2063616c6c6572206973206e6f7420746865206f776e6572604082015260600190565b6020808252601190820152700e6d8d2e0e0c2ceca40e8dede40d0d2ced607b1b604082015260600190565b6020808252602a908201527f5361666545524332303a204552433230206f7065726174696f6e20646964206e6040820152691bdd081cdd58d8d9595960b21b606082015260800190565b60208082526036908201527f5361666545524332303a20617070726f76652066726f6d206e6f6e2d7a65726f60408201527520746f206e6f6e2d7a65726f20616c6c6f77616e636560501b606082015260800190565b6020808252601f908201527f5361666545524332303a2063616c6c20746f206e6f6e2d636f6e747261637400604082015260600190565b90815260200190565b6000838252604060208301526124ea6040830184612b65565b600086825285602083015260a0604083015261300a60a0830186612b65565b6001600160a01b0394909416606083015250608001529392505050565b600086825285602083015284604083015283606083015260a0608083015261305260a0830184612b65565b979650505050505050565b60405181810167ffffffffffffffff8111828210171561307c57600080fd5b604052919050565b600067ffffffffffffffff82111561309a578081fd5b5060209081020190565b60005b838110156130bf5781810151838201526020016130a7565b8381111561228e5750506000910152565b6001600160a01b03811681146130e557600080fd5b50565b80151581146130e557600080fd5b60ff811681146130e557600080fdfea2646970667358221220fdd4b4d28e4ab1061e9beb0a0c0769ec684cc725ce50ede2d0b998625edcc14964736f6c634300060c0033",
  "immutableReferences": {
    "96": [
      {
        "length": 32,
        "start": 847
      },
      {
        "length": 32,
        "start": 3814
      },
      {
        "length": 32,
        "start": 3875
      },
      {
        "length": 32,
        "start": 3981
      },
      {
        "length": 32,
        "start": 5531
      },
      {
        "length": 32,
        "start": 6633
      },
      {
        "length": 32,
        "start": 7926
      },
      {
        "length": 32,
        "start": 7987
      },
      {
        "length": 32,
        "start": 8093
      }
    ],
    "99": [
      {
        "length": 32,
        "start": 930
      },
      {
        "length": 32,
        "start": 8878
      }
    ],
    "102": [
      {
        "length": 32,
        "start": 1537
      },
      {
        "length": 32,
        "start": 4108
      },
      {
        "length": 32,
        "start": 4352
      },
      {
        "length": 32,
        "start": 5806
      },
      {
        "length": 32,
        "start": 6454
      },
      {
        "length": 32,
        "start": 6507
      },
      {
        "length": 32,
        "start": 6911
      },
      {
        "length": 32,
        "start": 8220
      },
      {
        "length": 32,
        "start": 8461
      }
    ],
    "5186": [
      {
        "length": 32,
        "start": 883
      }
    ],
    "5189": [
      {
        "length": 32,
        "start": 1119
      },
      {
        "length": 32,
        "start": 1404
      },
      {
        "length": 32,
        "start": 2071
      },
      {
        "length": 32,
        "start": 2124
      },
      {
        "length": 32,
        "start": 2184
      },
      {
        "length": 32,
        "start": 2727
      },
      {
        "length": 32,
        "start": 2780
      },
      {
        "length": 32,
        "start": 2970
      },
      {
        "length": 32,
        "start": 3504
      },
      {
        "length": 32,
        "start": 3547
      },
      {
        "length": 32,
        "start": 5170
      },
      {
        "length": 32,
        "start": 6140
      }
    ]
  },
  "source": "// SPDX-License-Identifier: agpl-3.0\npragma solidity 0.6.12;\npragma experimental ABIEncoderV2;\n\nimport {BaseUniswapAdapter} from './BaseUniswapAdapter.sol';\nimport {ILendingPoolAddressesProvider} from '../interfaces/ILendingPoolAddressesProvider.sol';\nimport {IUniswapV2Router02} from '../interfaces/IUniswapV2Router02.sol';\nimport {IERC20} from '../dependencies/openzeppelin/contracts/IERC20.sol';\nimport {DataTypes} from '../protocol/libraries/types/DataTypes.sol';\n\n/**\n * @title UniswapRepayAdapter\n * @notice Uniswap V2 Adapter to perform a repay of a debt with collateral.\n * @author Aave\n **/\ncontract UniswapRepayAdapter is BaseUniswapAdapter {\n  struct RepayParams {\n    address collateralAsset;\n    uint256 collateralAmount;\n    uint256 rateMode;\n    PermitSignature permitSignature;\n    bool useEthPath;\n  }\n\n  constructor(\n    ILendingPoolAddressesProvider addressesProvider,\n    IUniswapV2Router02 uniswapRouter,\n    address wethAddress\n  ) public BaseUniswapAdapter(addressesProvider, uniswapRouter, wethAddress) {}\n\n  /**\n   * @dev Uses the received funds from the flash loan to repay a debt on the protocol on behalf of the user. Then pulls\n   * the collateral from the user and swaps it to the debt asset to repay the flash loan.\n   * The user should give this contract allowance to pull the ATokens in order to withdraw the underlying asset, swap it\n   * and repay the flash loan.\n   * Supports only one asset on the flash loan.\n   * @param assets Address of debt asset\n   * @param amounts Amount of the debt to be repaid\n   * @param premiums Fee of the flash loan\n   * @param initiator Address of the user\n   * @param params Additional variadic field to include extra params. Expected parameters:\n   *   address collateralAsset Address of the reserve to be swapped\n   *   uint256 collateralAmount Amount of reserve to be swapped\n   *   uint256 rateMode Rate modes of the debt to be repaid\n   *   uint256 permitAmount Amount for the permit signature\n   *   uint256 deadline Deadline for the permit signature\n   *   uint8 v V param for the permit signature\n   *   bytes32 r R param for the permit signature\n   *   bytes32 s S param for the permit signature\n   */\n  function executeOperation(\n    address[] calldata assets,\n    uint256[] calldata amounts,\n    uint256[] calldata premiums,\n    address initiator,\n    bytes calldata params\n  ) external override returns (bool) {\n    require(msg.sender == address(LENDING_POOL), 'CALLER_MUST_BE_LENDING_POOL');\n\n    RepayParams memory decodedParams = _decodeParams(params);\n\n    _swapAndRepay(\n      decodedParams.collateralAsset,\n      assets[0],\n      amounts[0],\n      decodedParams.collateralAmount,\n      decodedParams.rateMode,\n      initiator,\n      premiums[0],\n      decodedParams.permitSignature,\n      decodedParams.useEthPath\n    );\n\n    return true;\n  }\n\n  /**\n   * @dev Swaps the user collateral for the debt asset and then repay the debt on the protocol on behalf of the user\n   * without using flash loans. This method can be used when the temporary transfer of the collateral asset to this\n   * contract does not affect the user position.\n   * The user should give this contract allowance to pull the ATokens in order to withdraw the underlying asset\n   * @param collateralAsset Address of asset to be swapped\n   * @param debtAsset Address of debt asset\n   * @param collateralAmount Amount of the collateral to be swapped\n   * @param debtRepayAmount Amount of the debt to be repaid\n   * @param debtRateMode Rate mode of the debt to be repaid\n   * @param permitSignature struct containing the permit signature\n   * @param useEthPath struct containing the permit signature\n\n   */\n  function swapAndRepay(\n    address collateralAsset,\n    address debtAsset,\n    uint256 collateralAmount,\n    uint256 debtRepayAmount,\n    uint256 debtRateMode,\n    PermitSignature calldata permitSignature,\n    bool useEthPath\n  ) external {\n    DataTypes.ReserveData memory collateralReserveData = _getReserveData(collateralAsset);\n    DataTypes.ReserveData memory debtReserveData = _getReserveData(debtAsset);\n\n    address debtToken =\n      DataTypes.InterestRateMode(debtRateMode) == DataTypes.InterestRateMode.STABLE\n        ? debtReserveData.stableDebtTokenAddress\n        : debtReserveData.variableDebtTokenAddress;\n\n    uint256 currentDebt = IERC20(debtToken).balanceOf(msg.sender);\n    uint256 amountToRepay = debtRepayAmount <= currentDebt ? debtRepayAmount : currentDebt;\n\n    if (collateralAsset != debtAsset) {\n      uint256 maxCollateralToSwap = collateralAmount;\n      if (amountToRepay < debtRepayAmount) {\n        maxCollateralToSwap = maxCollateralToSwap.mul(amountToRepay).div(debtRepayAmount);\n      }\n\n      // Get exact collateral needed for the swap to avoid leftovers\n      uint256[] memory amounts =\n        _getAmountsIn(collateralAsset, debtAsset, amountToRepay, useEthPath);\n      require(amounts[0] <= maxCollateralToSwap, 'slippage too high');\n\n      // Pull aTokens from user\n      _pullAToken(\n        collateralAsset,\n        collateralReserveData.aTokenAddress,\n        msg.sender,\n        amounts[0],\n        permitSignature\n      );\n\n      // Swap collateral for debt asset\n      _swapTokensForExactTokens(collateralAsset, debtAsset, amounts[0], amountToRepay, useEthPath);\n    } else {\n      // Pull aTokens from user\n      _pullAToken(\n        collateralAsset,\n        collateralReserveData.aTokenAddress,\n        msg.sender,\n        amountToRepay,\n        permitSignature\n      );\n    }\n\n    // Repay debt. Approves 0 first to comply with tokens that implement the anti frontrunning approval fix\n    IERC20(debtAsset).safeApprove(address(LENDING_POOL), 0);\n    IERC20(debtAsset).safeApprove(address(LENDING_POOL), amountToRepay);\n    LENDING_POOL.repay(debtAsset, amountToRepay, debtRateMode, msg.sender);\n  }\n\n  /**\n   * @dev Perform the repay of the debt, pulls the initiator collateral and swaps to repay the flash loan\n   *\n   * @param collateralAsset Address of token to be swapped\n   * @param debtAsset Address of debt token to be received from the swap\n   * @param amount Amount of the debt to be repaid\n   * @param collateralAmount Amount of the reserve to be swapped\n   * @param rateMode Rate mode of the debt to be repaid\n   * @param initiator Address of the user\n   * @param premium Fee of the flash loan\n   * @param permitSignature struct containing the permit signature\n   */\n  function _swapAndRepay(\n    address collateralAsset,\n    address debtAsset,\n    uint256 amount,\n    uint256 collateralAmount,\n    uint256 rateMode,\n    address initiator,\n    uint256 premium,\n    PermitSignature memory permitSignature,\n    bool useEthPath\n  ) internal {\n    DataTypes.ReserveData memory collateralReserveData = _getReserveData(collateralAsset);\n\n    // Repay debt. Approves for 0 first to comply with tokens that implement the anti frontrunning approval fix.\n    IERC20(debtAsset).safeApprove(address(LENDING_POOL), 0);\n    IERC20(debtAsset).safeApprove(address(LENDING_POOL), amount);\n    uint256 repaidAmount = IERC20(debtAsset).balanceOf(address(this));\n    LENDING_POOL.repay(debtAsset, amount, rateMode, initiator);\n    repaidAmount = repaidAmount.sub(IERC20(debtAsset).balanceOf(address(this)));\n\n    if (collateralAsset != debtAsset) {\n      uint256 maxCollateralToSwap = collateralAmount;\n      if (repaidAmount < amount) {\n        maxCollateralToSwap = maxCollateralToSwap.mul(repaidAmount).div(amount);\n      }\n\n      uint256 neededForFlashLoanDebt = repaidAmount.add(premium);\n      uint256[] memory amounts =\n        _getAmountsIn(collateralAsset, debtAsset, neededForFlashLoanDebt, useEthPath);\n      require(amounts[0] <= maxCollateralToSwap, 'slippage too high');\n\n      // Pull aTokens from user\n      _pullAToken(\n        collateralAsset,\n        collateralReserveData.aTokenAddress,\n        initiator,\n        amounts[0],\n        permitSignature\n      );\n\n      // Swap collateral asset to the debt asset\n      _swapTokensForExactTokens(collateralAsset, debtAsset, amounts[0], neededForFlashLoanDebt, useEthPath);\n    } else {\n      // Pull aTokens from user\n      _pullAToken(\n        collateralAsset,\n        collateralReserveData.aTokenAddress,\n        initiator,\n        repaidAmount.add(premium),\n        permitSignature\n      );\n    }\n\n    // Repay flashloan. Approves for 0 first to comply with tokens that implement the anti frontrunning approval fix.\n    IERC20(debtAsset).safeApprove(address(LENDING_POOL), 0);\n    IERC20(debtAsset).safeApprove(address(LENDING_POOL), amount.add(premium));\n  }\n\n  /**\n   * @dev Decodes debt information encoded in the flash loan params\n   * @param params Additional variadic field to include extra params. Expected parameters:\n   *   address collateralAsset Address of the reserve to be swapped\n   *   uint256 collateralAmount Amount of reserve to be swapped\n   *   uint256 rateMode Rate modes of the debt to be repaid\n   *   uint256 permitAmount Amount for the permit signature\n   *   uint256 deadline Deadline for the permit signature\n   *   uint8 v V param for the permit signature\n   *   bytes32 r R param for the permit signature\n   *   bytes32 s S param for the permit signature\n   * @return RepayParams struct containing decoded params\n   */\n  function _decodeParams(bytes memory params) internal pure returns (RepayParams memory) {\n    (\n      address collateralAsset,\n      uint256 collateralAmount,\n      uint256 rateMode,\n      uint256 permitAmount,\n      uint256 deadline,\n      uint8 v,\n      bytes32 r,\n      bytes32 s,\n      bool useEthPath\n    ) =\n      abi.decode(\n        params,\n        (address, uint256, uint256, uint256, uint256, uint8, bytes32, bytes32, bool)\n      );\n\n    return\n      RepayParams(\n        collateralAsset,\n        collateralAmount,\n        rateMode,\n        PermitSignature(permitAmount, deadline, v, r, s),\n        useEthPath\n      );\n  }\n}",
  "sourcePath": "/home/conjohn/code/liquiditybot/contracts/aave/adapters/UniswapRepayAdapter.sol",
  "compiler": {
    "name": "solc",
    "version": "0.6.12+commit.27d51765.Emscripten.clang"
  },
  "schemaVersion": "3.3.3",
  "updatedAt": "2021-01-20T16:39:14.177Z",
  "devdoc": {
    "author": "Aave*",
    "kind": "dev",
    "methods": {
      "executeOperation(address[],uint256[],uint256[],address,bytes)": {
        "details": "Uses the received funds from the flash loan to repay a debt on the protocol on behalf of the user. Then pulls the collateral from the user and swaps it to the debt asset to repay the flash loan. The user should give this contract allowance to pull the ATokens in order to withdraw the underlying asset, swap it and repay the flash loan. Supports only one asset on the flash loan.",
        "params": {
          "amounts": "Amount of the debt to be repaid",
          "assets": "Address of debt asset",
          "initiator": "Address of the user",
          "params": "Additional variadic field to include extra params. Expected parameters:   address collateralAsset Address of the reserve to be swapped   uint256 collateralAmount Amount of reserve to be swapped   uint256 rateMode Rate modes of the debt to be repaid   uint256 permitAmount Amount for the permit signature   uint256 deadline Deadline for the permit signature   uint8 v V param for the permit signature   bytes32 r R param for the permit signature   bytes32 s S param for the permit signature",
          "premiums": "Fee of the flash loan"
        }
      },
      "getAmountsIn(uint256,address,address)": {
        "details": "Returns the minimum input asset amount required to buy the given output asset amount and the prices",
        "params": {
          "amountOut": "Amount of reserveOut",
          "reserveIn": "Address of the asset to be swap from",
          "reserveOut": "Address of the asset to be swap to"
        },
        "returns": {
          "_0": "uint256 Amount in of the reserveIn",
          "_1": "uint256 The price of in amount denominated in the reserveOut currency (18 decimals)",
          "_2": "uint256 In amount of reserveIn value denominated in USD (8 decimals)",
          "_3": "uint256 Out amount of reserveOut value denominated in USD (8 decimals)"
        }
      },
      "getAmountsOut(uint256,address,address)": {
        "details": "Given an input asset amount, returns the maximum output amount of the other asset and the prices",
        "params": {
          "amountIn": "Amount of reserveIn",
          "reserveIn": "Address of the asset to be swap from",
          "reserveOut": "Address of the asset to be swap to"
        },
        "returns": {
          "_0": "uint256 Amount out of the reserveOut",
          "_1": "uint256 The price of out amount denominated in the reserveIn currency (18 decimals)",
          "_2": "uint256 In amount of reserveIn value denominated in USD (8 decimals)",
          "_3": "uint256 Out amount of reserveOut value denominated in USD (8 decimals)"
        }
      },
      "owner()": {
        "details": "Returns the address of the current owner."
      },
      "renounceOwnership()": {
        "details": "Leaves the contract without owner. It will not be possible to call `onlyOwner` functions anymore. Can only be called by the current owner. NOTE: Renouncing ownership will leave the contract without an owner, thereby removing any functionality that is only available to the owner."
      },
      "rescueTokens(address)": {
        "details": "Emergency rescue for token stucked on this contract, as failsafe mechanism - Funds should never remain in this contract more time than during transactions - Only callable by the owner*"
      },
      "swapAndRepay(address,address,uint256,uint256,uint256,(uint256,uint256,uint8,bytes32,bytes32),bool)": {
        "details": "Swaps the user collateral for the debt asset and then repay the debt on the protocol on behalf of the user without using flash loans. This method can be used when the temporary transfer of the collateral asset to this contract does not affect the user position. The user should give this contract allowance to pull the ATokens in order to withdraw the underlying asset",
        "params": {
          "collateralAmount": "Amount of the collateral to be swapped",
          "collateralAsset": "Address of asset to be swapped",
          "debtAsset": "Address of debt asset",
          "debtRateMode": "Rate mode of the debt to be repaid",
          "debtRepayAmount": "Amount of the debt to be repaid",
          "permitSignature": "struct containing the permit signature",
          "useEthPath": "struct containing the permit signature"
        }
      },
      "transferOwnership(address)": {
        "details": "Transfers ownership of the contract to a new account (`newOwner`). Can only be called by the current owner."
      }
    },
    "title": "UniswapRepayAdapter",
    "version": 1
  },
  "userdoc": {
    "kind": "user",
    "methods": {},
    "notice": "Uniswap V2 Adapter to perform a repay of a debt with collateral.",
    "version": 1
  }
}