{
  "contractName": "UniswapLiquiditySwapAdapter",
  "abi": [
    {
      "inputs": [
        {
          "internalType": "contract ILendingPoolAddressesProvider",
          "name": "addressesProvider",
          "type": "address"
        },
        {
          "internalType": "contract IUniswapV2Router02",
          "name": "uniswapRouter",
          "type": "address"
        },
        {
          "internalType": "address",
          "name": "wethAddress",
          "type": "address"
        }
      ],
      "stateMutability": "nonpayable",
      "type": "constructor"
    },
    {
      "anonymous": false,
      "inputs": [
        {
          "indexed": true,
          "internalType": "address",
          "name": "previousOwner",
          "type": "address"
        },
        {
          "indexed": true,
          "internalType": "address",
          "name": "newOwner",
          "type": "address"
        }
      ],
      "name": "OwnershipTransferred",
      "type": "event"
    },
    {
      "anonymous": false,
      "inputs": [
        {
          "indexed": false,
          "internalType": "address",
          "name": "fromAsset",
          "type": "address"
        },
        {
          "indexed": false,
          "internalType": "address",
          "name": "toAsset",
          "type": "address"
        },
        {
          "indexed": false,
          "internalType": "uint256",
          "name": "fromAmount",
          "type": "uint256"
        },
        {
          "indexed": false,
          "internalType": "uint256",
          "name": "receivedAmount",
          "type": "uint256"
        }
      ],
      "name": "Swapped",
      "type": "event"
    },
    {
      "inputs": [],
      "name": "ADDRESSES_PROVIDER",
      "outputs": [
        {
          "internalType": "contract ILendingPoolAddressesProvider",
          "name": "",
          "type": "address"
        }
      ],
      "stateMutability": "view",
      "type": "function"
    },
    {
      "inputs": [],
      "name": "FLASHLOAN_PREMIUM_TOTAL",
      "outputs": [
        {
          "internalType": "uint256",
          "name": "",
          "type": "uint256"
        }
      ],
      "stateMutability": "view",
      "type": "function"
    },
    {
      "inputs": [],
      "name": "LENDING_POOL",
      "outputs": [
        {
          "internalType": "contract ILendingPool",
          "name": "",
          "type": "address"
        }
      ],
      "stateMutability": "view",
      "type": "function"
    },
    {
      "inputs": [],
      "name": "MAX_SLIPPAGE_PERCENT",
      "outputs": [
        {
          "internalType": "uint256",
          "name": "",
          "type": "uint256"
        }
      ],
      "stateMutability": "view",
      "type": "function"
    },
    {
      "inputs": [],
      "name": "ORACLE",
      "outputs": [
        {
          "internalType": "contract IPriceOracleGetter",
          "name": "",
          "type": "address"
        }
      ],
      "stateMutability": "view",
      "type": "function"
    },
    {
      "inputs": [],
      "name": "UNISWAP_ROUTER",
      "outputs": [
        {
          "internalType": "contract IUniswapV2Router02",
          "name": "",
          "type": "address"
        }
      ],
      "stateMutability": "view",
      "type": "function"
    },
    {
      "inputs": [],
      "name": "USD_ADDRESS",
      "outputs": [
        {
          "internalType": "address",
          "name": "",
          "type": "address"
        }
      ],
      "stateMutability": "view",
      "type": "function"
    },
    {
      "inputs": [],
      "name": "WETH_ADDRESS",
      "outputs": [
        {
          "internalType": "address",
          "name": "",
          "type": "address"
        }
      ],
      "stateMutability": "view",
      "type": "function"
    },
    {
      "inputs": [
        {
          "internalType": "uint256",
          "name": "amountOut",
          "type": "uint256"
        },
        {
          "internalType": "address",
          "name": "reserveIn",
          "type": "address"
        },
        {
          "internalType": "address",
          "name": "reserveOut",
          "type": "address"
        }
      ],
      "name": "getAmountsIn",
      "outputs": [
        {
          "internalType": "uint256",
          "name": "",
          "type": "uint256"
        },
        {
          "internalType": "uint256",
          "name": "",
          "type": "uint256"
        },
        {
          "internalType": "uint256",
          "name": "",
          "type": "uint256"
        },
        {
          "internalType": "uint256",
          "name": "",
          "type": "uint256"
        },
        {
          "internalType": "address[]",
          "name": "",
          "type": "address[]"
        }
      ],
      "stateMutability": "view",
      "type": "function"
    },
    {
      "inputs": [
        {
          "internalType": "uint256",
          "name": "amountIn",
          "type": "uint256"
        },
        {
          "internalType": "address",
          "name": "reserveIn",
          "type": "address"
        },
        {
          "internalType": "address",
          "name": "reserveOut",
          "type": "address"
        }
      ],
      "name": "getAmountsOut",
      "outputs": [
        {
          "internalType": "uint256",
          "name": "",
          "type": "uint256"
        },
        {
          "internalType": "uint256",
          "name": "",
          "type": "uint256"
        },
        {
          "internalType": "uint256",
          "name": "",
          "type": "uint256"
        },
        {
          "internalType": "uint256",
          "name": "",
          "type": "uint256"
        },
        {
          "internalType": "address[]",
          "name": "",
          "type": "address[]"
        }
      ],
      "stateMutability": "view",
      "type": "function"
    },
    {
      "inputs": [],
      "name": "owner",
      "outputs": [
        {
          "internalType": "address",
          "name": "",
          "type": "address"
        }
      ],
      "stateMutability": "view",
      "type": "function"
    },
    {
      "inputs": [],
      "name": "renounceOwnership",
      "outputs": [],
      "stateMutability": "nonpayable",
      "type": "function"
    },
    {
      "inputs": [
        {
          "internalType": "contract IERC20",
          "name": "token",
          "type": "address"
        }
      ],
      "name": "rescueTokens",
      "outputs": [],
      "stateMutability": "nonpayable",
      "type": "function"
    },
    {
      "inputs": [
        {
          "internalType": "address",
          "name": "newOwner",
          "type": "address"
        }
      ],
      "name": "transferOwnership",
      "outputs": [],
      "stateMutability": "nonpayable",
      "type": "function"
    },
    {
      "inputs": [
        {
          "internalType": "address[]",
          "name": "assets",
          "type": "address[]"
        },
        {
          "internalType": "uint256[]",
          "name": "amounts",
          "type": "uint256[]"
        },
        {
          "internalType": "uint256[]",
          "name": "premiums",
          "type": "uint256[]"
        },
        {
          "internalType": "address",
          "name": "initiator",
          "type": "address"
        },
        {
          "internalType": "bytes",
          "name": "params",
          "type": "bytes"
        }
      ],
      "name": "executeOperation",
      "outputs": [
        {
          "internalType": "bool",
          "name": "",
          "type": "bool"
        }
      ],
      "stateMutability": "nonpayable",
      "type": "function"
    },
    {
      "inputs": [
        {
          "internalType": "address[]",
          "name": "assetToSwapFromList",
          "type": "address[]"
        },
        {
          "internalType": "address[]",
          "name": "assetToSwapToList",
          "type": "address[]"
        },
        {
          "internalType": "uint256[]",
          "name": "amountToSwapList",
          "type": "uint256[]"
        },
        {
          "internalType": "uint256[]",
          "name": "minAmountsToReceive",
          "type": "uint256[]"
        },
        {
          "components": [
            {
              "internalType": "uint256",
              "name": "amount",
              "type": "uint256"
            },
            {
              "internalType": "uint256",
              "name": "deadline",
              "type": "uint256"
            },
            {
              "internalType": "uint8",
              "name": "v",
              "type": "uint8"
            },
            {
              "internalType": "bytes32",
              "name": "r",
              "type": "bytes32"
            },
            {
              "internalType": "bytes32",
              "name": "s",
              "type": "bytes32"
            }
          ],
          "internalType": "struct IBaseUniswapAdapter.PermitSignature[]",
          "name": "permitParams",
          "type": "tuple[]"
        },
        {
          "internalType": "bool[]",
          "name": "useEthPath",
          "type": "bool[]"
        }
      ],
      "name": "swapAndDeposit",
      "outputs": [],
      "stateMutability": "nonpayable",
      "type": "function"
    }
  ],
  "bytecode": "0x6101206040523480156200001257600080fd5b5060405162003744380380620037448339810160408190526200003591620001fd565b82828282806001600160a01b03166080816001600160a01b031660601b81525050806001600160a01b0316630261bf8b6040518163ffffffff1660e01b815260040160206040518083038186803b1580156200009057600080fd5b505afa158015620000a5573d6000803e3d6000fd5b505050506040513d601f19601f82011682018060405250810190620000cb9190620001d7565b60601b6001600160601b03191660a052506000620000e8620001d3565b600080546001600160a01b0319166001600160a01b0383169081178255604051929350917f8be0079c531659141344cd1fd0a4f28419497f9722a3daafe3b4186f6b6457e0908290a350826001600160a01b031663fca513a86040518163ffffffff1660e01b815260040160206040518083038186803b1580156200016c57600080fd5b505afa15801562000181573d6000803e3d6000fd5b505050506040513d601f19601f82011682018060405250810190620001a79190620001d7565b6001600160601b0319606091821b811660e05292811b8316610100521b1660c052506200026992505050565b3390565b600060208284031215620001e9578081fd5b8151620001f68162000250565b9392505050565b60008060006060848603121562000212578182fd5b83516200021f8162000250565b6020850151909350620002328162000250565b6040850151909250620002458162000250565b809150509250925092565b6001600160a01b03811681146200026657600080fd5b50565b60805160601c60a05160601c60c05160601c60e05160601c6101005160601c61340a6200033a60003980610b60528061114f528061124352806117f4528061182952806119bd5280611f6a528061205b5250806103a252806121c552508061034f5280611029528061106652806110d052806118a75280611e445280611e815280611eeb52508061045f52806107355280610a075280610a615280610a975280610dbb5280610df75280610e385280610ef25280610f2e528061157552806116ba525080610373525061340a6000f3fe608060405234801561001057600080fd5b50600436106100ff5760003560e01c8063920f5c8411610097578063cdf58cd611610066578063cdf58cd6146101c8578063d51c9ed7146101db578063d8264920146101ee578063f2fde38b146101f6576100ff565b8063920f5c84146101745780639d1211bf14610194578063b4dcfc771461019c578063baf7fa99146101a4576100ff565b806332e4b286116100d357806332e4b2861461015457806338013f021461015c578063715018a6146101645780638da5cb5b1461016c576100ff565b8062ae3bf814610104578063040141e5146101195780630542975c14610137578063074b2e431461013f575b600080fd5b610117610112366004612865565b610209565b005b61012161034d565b60405161012e9190612e9f565b60405180910390f35b610121610371565b610147610395565b60405161012e919061329a565b61014761039a565b6101216103a0565b6101176103c4565b610121610443565b6101876101823660046129b7565b610452565b60405161012e9190612fc4565b61012161071b565b610121610733565b6101b76101b2366004612de3565b610757565b60405161012e9594939291906132f8565b6101b76101d6366004612de3565b61079d565b6101176101e9366004612881565b6107b8565b610121610b5e565b610117610204366004612865565b610b82565b610211610c38565b6000546001600160a01b039081169116146102475760405162461bcd60e51b815260040161023e90613161565b60405180910390fd5b806001600160a01b031663a9059cbb61025e610443565b6040516370a0823160e01b81526001600160a01b038516906370a082319061028a903090600401612e9f565b60206040518083038186803b1580156102a257600080fd5b505afa1580156102b6573d6000803e3d6000fd5b505050506040513d601f19601f820116820180604052508101906102da9190612dcb565b6040518363ffffffff1660e01b81526004016102f7929190612f5b565b602060405180830381600087803b15801561031157600080fd5b505af1158015610325573d6000803e3d6000fd5b505050506040513d601f19601f820116820180604052508101906103499190612c5b565b5050565b7f000000000000000000000000000000000000000000000000000000000000000081565b7f000000000000000000000000000000000000000000000000000000000000000081565b600981565b610bb881565b7f000000000000000000000000000000000000000000000000000000000000000081565b6103cc610c38565b6000546001600160a01b039081169116146103f95760405162461bcd60e51b815260040161023e90613161565b600080546040516001600160a01b03909116907f8be0079c531659141344cd1fd0a4f28419497f9722a3daafe3b4186f6b6457e0908390a3600080546001600160a01b0319169055565b6000546001600160a01b031690565b6000336001600160a01b037f0000000000000000000000000000000000000000000000000000000000000000161461049c5760405162461bcd60e51b815260040161023e90613002565b6104a4612440565b6104e384848080601f016020809104026020016040519081016040528093929190818152602001838380828437600092019190915250610c3c92505050565b8051519091508a1480156104fb57506020810151518a145b801561050b57506040810151518a145b801561051c5750606081015151518a145b80156105305750606081015160200151518a145b80156105445750606081015160400151518a145b801561055757506060808201510151518a145b801561056b5750606081015160800151518a145b801561057b57506080810151518a145b6105975760405162461bcd60e51b815260040161023e90613196565b60005b8a811015610709576107018c8c838181106105b157fe5b90506020020160208101906105c69190612865565b83518051849081106105d457fe5b60200260200101518c8c858181106105e857fe5b905060200201358b8b868181106105fb57fe5b905060200201358a8760200151878151811061061357fe5b60200260200101518860400151888151811061062b57fe5b60200260200101516040518060a001604052808b60600151600001518b8151811061065257fe5b602002602001015181526020018b60600151602001518b8151811061067357fe5b602002602001015181526020018b60600151604001518b8151811061069457fe5b602002602001015160ff1681526020018b60600151606001518b815181106106b857fe5b602002602001015181526020018b60600151608001518b815181106106d957fe5b60200260200101518152508a608001518a815181106106f457fe5b6020026020010151610cc5565b60010161059a565b5060019b9a5050505050505050505050565b7310f7fc1f91ba351f9c629c5947ad69bd03c05b9681565b7f000000000000000000000000000000000000000000000000000000000000000081565b6000806000806060610767612475565b61077288888b610f5f565b8051602082015160408301516060840151608090940151929d919c509a509198509650945050505050565b60008060008060606107ad612475565b61077288888b611452565b8a891480156107c657508a87145b80156107d157508a85145b80156107dc57508a83145b6107f85760405162461bcd60e51b815260040161023e90613196565b6108006124a4565b600081525b80518c1115610b4f5761083b8d8d836000015181811061082157fe5b90506020020160208101906108369190612865565b611556565b60e001516001600160a01b0316608082018190526040516370a0823160e01b81526370a0823190610870903390600401612e9f565b60206040518083038186803b15801561088857600080fd5b505afa15801561089c573d6000803e3d6000fd5b505050506040513d601f19601f820116820180604052508101906108c09190612dcb565b6020820181905281518a908a908181106108d657fe5b90506020020135116108fe57888882600001518181106108f257fe5b90506020020135610904565b80602001515b60408201528051610967908e908e9081811061091c57fe5b90506020020160208101906109319190612865565b82608001513384604001518989876000015181811061094c57fe5b905060a002018036038101906109629190612c77565b611601565b6109fa8d8d836000015181811061097a57fe5b905060200201602081019061098f9190612865565b8c8c846000015181811061099f57fe5b90506020020160208101906109b49190612865565b83604001518a8a86600001518181106109c957fe5b90506020020135878787600001518181106109e057fe5b90506020020160208101906109f59190612c3f565b61174d565b60608201528051610a5c907f0000000000000000000000000000000000000000000000000000000000000000906000908e908e90818110610a3757fe5b9050602002016020810190610a4c9190612865565b6001600160a01b03169190611ae4565b610a957f000000000000000000000000000000000000000000000000000000000000000082606001518d8d8560000151818110610a3757fe5b7f00000000000000000000000000000000000000000000000000000000000000006001600160a01b031663e8eda9df8c8c8460000151818110610ad457fe5b9050602002016020810190610ae99190612865565b83606001513360006040518563ffffffff1660e01b8152600401610b109493929190612f97565b600060405180830381600087803b158015610b2a57600080fd5b505af1158015610b3e573d6000803e3d6000fd5b505082516001018352506108059050565b50505050505050505050505050565b7f000000000000000000000000000000000000000000000000000000000000000081565b610b8a610c38565b6000546001600160a01b03908116911614610bb75760405162461bcd60e51b815260040161023e90613161565b6001600160a01b038116610bdd5760405162461bcd60e51b815260040161023e90613039565b600080546040516001600160a01b03808516939216917f8be0079c531659141344cd1fd0a4f28419497f9722a3daafe3b4186f6b6457e091a3600080546001600160a01b0319166001600160a01b0392909216919091179055565b3390565b610c44612440565b60608060608060608060608060608a806020019051810190610c669190612ab3565b6040805160a080820183529a815260208082019a909a52808201989098528051998a018152958952968801939093529286015260608086019290925260808086019190915290820193909352918201529b9a5050505050505050505050565b610ccd6124dc565b610cd68a611556565b60e001516001600160a01b03168082526040516370a0823160e01b81526370a0823190610d07908990600401612e9f565b60206040518083038186803b158015610d1f57600080fd5b505afa158015610d33573d6000803e3d6000fd5b505050506040513d601f19601f82011682018060405250810190610d579190612dcb565b6020820152838015610d78575060208101518890610d759089611be3565b11155b610d825787610d91565b6020810151610d919088611be3565b60408201819052610da7908b908b90888661174d565b6060820152610de16001600160a01b038a167f00000000000000000000000000000000000000000000000000000000000000006000611ae4565b6060810151610e1c906001600160a01b038b16907f000000000000000000000000000000000000000000000000000000000000000090611ae4565b606081015160405163e8eda9df60e01b81526001600160a01b037f0000000000000000000000000000000000000000000000000000000000000000169163e8eda9df91610e72918d918b90600090600401612f97565b600060405180830381600087803b158015610e8c57600080fd5b505af1158015610ea0573d6000803e3d6000fd5b50505050610eb78789611c2c90919063ffffffff16565b60808201526040810151610ecb9088611c2c565b60a082018190528151610ee3918c9190899087611601565b610f186001600160a01b038b167f00000000000000000000000000000000000000000000000000000000000000006000611ae4565b6080810151610f53906001600160a01b038c16907f000000000000000000000000000000000000000000000000000000000000000090611ae4565b50505050505050505050565b610f67612475565b6000610f8a610f83612710610f7d866009611c51565b90611c8b565b8490611be3565b6040805160028082526060808301845293945090916020830190803683370190505090508581600081518110610fbc57fe5b60200260200101906001600160a01b031690816001600160a01b0316815250508481600181518110610fea57fe5b6001600160a01b0392909216602092830291909101820152604080516003808252608082019092526060928392839291820183803683370190505090507f00000000000000000000000000000000000000000000000000000000000000006001600160a01b0316896001600160a01b03161415801561109b57507f00000000000000000000000000000000000000000000000000000000000000006001600160a01b0316886001600160a01b031614155b156112075788816000815181106110ae57fe5b60200260200101906001600160a01b031690816001600160a01b0316815250507f0000000000000000000000000000000000000000000000000000000000000000816001815181106110fc57fe5b60200260200101906001600160a01b031690816001600160a01b031681525050878160028151811061112a57fe5b6001600160a01b03928316602091820292909201015260405163d06ca61f60e01b81527f00000000000000000000000000000000000000000000000000000000000000009091169063d06ca61f9061118890889085906004016132a3565b60006040518083038186803b1580156111a057600080fd5b505afa9250505080156111d557506040513d6000823e601f3d908101601f191682016040526111d29190810190612c0d565b60015b6111ff57604080516003808252608082019092529060208201606080368337019050509150611202565b91505b611229565b6040805160038082526080820190925290602082016060803683370190505091505b60405163d06ca61f60e01b81526000906001600160a01b037f0000000000000000000000000000000000000000000000000000000000000000169063d06ca61f9061127a90899089906004016132a3565b60006040518083038186803b15801561129257600080fd5b505afa9250505080156112c757506040513d6000823e601f3d908101601f191682016040526112c49190810190612c0d565b60015b611307576040805160028082526060820183529091602083019080368337019050509350826002815181106112f857fe5b6020026020010151905061136d565b8094508460018151811061131757fe5b60200260200101518460028151811061132c57fe5b602002602001015111611353578460018151811061134657fe5b6020026020010151611369565b8360028151811061136057fe5b60200260200101515b9150505b60006113788b611ccd565b905060006113858b611ccd565b905060006113ba61139a85600a86900a611c51565b610f7d600a85900a6113b48d670de0b6b3a7640000611c51565b90611c51565b90506040518060a001604052808581526020018281526020016113de8f8e87611d49565b81526020016113ee8e8786611d49565b81526020018515611421578860018151811061140657fe5b6020026020010151861461141a578661141c565b895b61143f565b60408051600280825260608201835290916020830190803683375050505b90529d9c50505050505050505050505050565b61145a612475565b606080611468868686611da2565b9150915060006114c261149f612710610f7d60098760008151811061148957fe5b6020026020010151611c5190919063ffffffff16565b846000815181106114ac57fe5b6020026020010151611c2c90919063ffffffff16565b905060006114cf88611ccd565b905060006114dc88611ccd565b9050600061150b6114f185600a85900a611c51565b610f7d600a86900a6113b48c670de0b6b3a7640000611c51565b90506040518060a0016040528085815260200182815260200161152f8c8787611d49565b815260200161153f8b8b86611d49565b815260200195909552509298975050505050505050565b61155e61251b565b6040516335ea6a7560e01b81526001600160a01b037f000000000000000000000000000000000000000000000000000000000000000016906335ea6a75906115aa908590600401612e9f565b6101806040518083038186803b1580156115c357600080fd5b505afa1580156115d7573d6000803e3d6000fd5b505050506040513d601f19601f820116820180604052508101906115fb9190612cd0565b92915050565b61160a8161215f565b1561168e57836001600160a01b031663d505accf8430846000015185602001518660400151876060015188608001516040518863ffffffff1660e01b815260040161165b9796959493929190612f1a565b600060405180830381600087803b15801561167557600080fd5b505af1158015611689573d6000803e3d6000fd5b505050505b6116a36001600160a01b038516843085612184565b604051631a4ca37b60e21b81526001600160a01b037f000000000000000000000000000000000000000000000000000000000000000016906369328dec906116f390889086903090600401612f74565b602060405180830381600087803b15801561170d57600080fd5b505af1158015611721573d6000803e3d6000fd5b505050506040513d601f19601f820116820180604052508101906117459190612dcb565b505050505050565b60008061175987611ccd565b9050600061176687611ccd565b90506000611773896121ab565b90506000611780896121ab565b905060006117c4611795612710610bb8611be3565b6117be6117a685600a8a900a611c51565b610f7d6117b788600a8b900a611c51565b8e90611c51565b9061224a565b90508781106117e55760405162461bcd60e51b815260040161023e906130eb565b61181a6001600160a01b038c167f00000000000000000000000000000000000000000000000000000000000000006000611ae4565b61184e6001600160a01b038c167f00000000000000000000000000000000000000000000000000000000000000008b611ae4565b60608715611926576040805160038082526080820190925290602082016060803683370190505090508b8160008151811061188557fe5b60200260200101906001600160a01b031690816001600160a01b0316815250507f0000000000000000000000000000000000000000000000000000000000000000816001815181106118d357fe5b60200260200101906001600160a01b031690816001600160a01b0316815250508a8160028151811061190157fe5b60200260200101906001600160a01b031690816001600160a01b0316815250506119a3565b60408051600280825260608201835290916020830190803683370190505090508b8160008151811061195457fe5b60200260200101906001600160a01b031690816001600160a01b0316815250508a8160018151811061198257fe5b60200260200101906001600160a01b031690816001600160a01b0316815250505b6040516338ed173960e01b81526060906001600160a01b037f000000000000000000000000000000000000000000000000000000000000000016906338ed1739906119fa908e908e908790309042906004016132bc565b600060405180830381600087803b158015611a1457600080fd5b505af1158015611a28573d6000803e3d6000fd5b505050506040513d6000823e601f3d908101601f19168201604052611a509190810190612c0d565b90507fa078c4190abe07940190effc1846be0ccf03ad6007bc9e93f9697d0b460befbb8d8d83600081518110611a8257fe5b602002602001015184600186510381518110611a9a57fe5b6020026020010151604051611ab29493929190612ef1565b60405180910390a180600182510381518110611aca57fe5b602002602001015197505050505050505095945050505050565b801580611b6c5750604051636eb1769f60e11b81526001600160a01b0384169063dd62ed3e90611b1a9030908690600401612eb3565b60206040518083038186803b158015611b3257600080fd5b505afa158015611b46573d6000803e3d6000fd5b505050506040513d601f19601f82011682018060405250810190611b6a9190612dcb565b155b611b885760405162461bcd60e51b815260040161023e9061320d565b611bde8363095ea7b360e01b8484604051602401611ba7929190612f5b565b60408051601f198184030181529190526020810180516001600160e01b03166001600160e01b0319909316929092179091526122bc565b505050565b6000611c2583836040518060400160405280601e81526020017f536166654d6174683a207375627472616374696f6e206f766572666c6f7700008152506123a1565b9392505050565b600082820183811015611c255760405162461bcd60e51b815260040161023e9061307f565b600082611c60575060006115fb565b82820282848281611c6d57fe5b0414611c255760405162461bcd60e51b815260040161023e90613120565b6000611c2583836040518060400160405280601a81526020017f536166654d6174683a206469766973696f6e206279207a65726f0000000000008152506123cd565b6000816001600160a01b031663313ce5676040518163ffffffff1660e01b815260040160206040518083038186803b158015611d0857600080fd5b505afa158015611d1c573d6000803e3d6000fd5b505050506040513d601f19601f82011682018060405250810190611d409190612e24565b60ff1692915050565b600080611d697310f7fc1f91ba351f9c629c5947ad69bd03c05b966121ab565b90506000611d76866121ab565b9050611d98670de0b6b3a7640000610f7d846113b4600a89900a838b88611c51565b9695505050505050565b6040805160028082526060828101909352829182918160200160208202803683370190505090508581600081518110611dd757fe5b60200260200101906001600160a01b031690816001600160a01b0316815250508481600181518110611e0557fe5b6001600160a01b0392909216602092830291909101820152604080516003808252608082019092526060928392839291820183803683370190505090507f00000000000000000000000000000000000000000000000000000000000000006001600160a01b0316896001600160a01b031614158015611eb657507f00000000000000000000000000000000000000000000000000000000000000006001600160a01b0316886001600160a01b031614155b15612022578881600081518110611ec957fe5b60200260200101906001600160a01b031690816001600160a01b0316815250507f000000000000000000000000000000000000000000000000000000000000000081600181518110611f1757fe5b60200260200101906001600160a01b031690816001600160a01b0316815250508781600281518110611f4557fe5b6001600160a01b0392831660209182029290920101526040516307c0329d60e21b81527f000000000000000000000000000000000000000000000000000000000000000090911690631f00ca7490611fa3908a9085906004016132a3565b60006040518083038186803b158015611fbb57600080fd5b505afa925050508015611ff057506040513d6000823e601f3d908101601f19168201604052611fed9190810190612c0d565b60015b61201a5760408051600380825260808201909252906020820160608036833701905050915061201d565b91505b612044565b6040805160038082526080820190925290602082016060803683370190505091505b6040516307c0329d60e21b81526001600160a01b037f00000000000000000000000000000000000000000000000000000000000000001690631f00ca7490612092908a9088906004016132a3565b60006040518083038186803b1580156120aa57600080fd5b505afa9250505080156120df57506040513d6000823e601f3d908101601f191682016040526120dc9190810190612c0d565b60015b6120f0579094509250612157915050565b8093508360008151811061210057fe5b60200260200101518360008151811061211557fe5b602002602001015110801561213f57508260008151811061213257fe5b6020026020010151600014155b61214a57838561214d565b82825b9650965050505050505b935093915050565b6000816040015160ff16826020015114801561217d57506020820151155b1592915050565b6121a5846323b872dd60e01b858585604051602401611ba793929190612ecd565b50505050565b60405163b3596f0760e01b81526000906001600160a01b037f0000000000000000000000000000000000000000000000000000000000000000169063b3596f07906121fa908590600401612e9f565b60206040518083038186803b15801561221257600080fd5b505afa158015612226573d6000803e3d6000fd5b505050506040513d601f19601f820116820180604052508101906115fb9190612dcb565b6000821580612257575081155b15612264575060006115fb565b81611388198161227057fe5b0483111560405180604001604052806002815260200161068760f31b815250906122ad5760405162461bcd60e51b815260040161023e9190612fcf565b50506127109102611388010490565b6122ce826001600160a01b0316612404565b6122ea5760405162461bcd60e51b815260040161023e90613263565b60006060836001600160a01b0316836040516123069190612e83565b6000604051808303816000865af19150503d8060008114612343576040519150601f19603f3d011682016040523d82523d6000602084013e612348565b606091505b50915091508161236a5760405162461bcd60e51b815260040161023e906130b6565b8051156121a557808060200190518101906123859190612c5b565b6121a55760405162461bcd60e51b815260040161023e906131c3565b600081848411156123c55760405162461bcd60e51b815260040161023e9190612fcf565b505050900390565b600081836123ee5760405162461bcd60e51b815260040161023e9190612fcf565b5060008385816123fa57fe5b0495945050505050565b6000813f7fc5d2460186f7233c927e7db2dcc703c0e500b653ca82273b7bfad8045d85a47081811480159061243857508115155b949350505050565b6040518060a00160405280606081526020016060815260200160608152602001612468612586565b8152602001606081525090565b6040518060a0016040528060008152602001600081526020016000815260200160008152602001606081525090565b6040518060a001604052806000815260200160008152602001600081526020016000815260200160006001600160a01b031681525090565b6040518060c0016040528060006001600160a01b0316815260200160008152602001600081526020016000815260200160008152602001600081525090565b60405180610180016040528061252f6125b5565b815260006020820181905260408201819052606082018190526080820181905260a0820181905260c0820181905260e082018190526101008201819052610120820181905261014082018190526101609091015290565b6040518060a0016040528060608152602001606081526020016060815260200160608152602001606081525090565b6040518060200160405280600081525090565b80516115fb8161339f565b60008083601f8401126125e4578182fd5b5081356001600160401b038111156125fa578182fd5b602083019150836020808302850101111561261457600080fd5b9250929050565b600082601f83011261262b578081fd5b815161263e61263982613354565b61332e565b81815291506020808301908481018184028601820187101561265f57600080fd5b60005b848110156126875781516126758161339f565b84529282019290820190600101612662565b505050505092915050565b600082601f8301126126a2578081fd5b81516126b061263982613354565b8181529150602080830190848101818402860182018710156126d157600080fd5b60005b848110156126875781516126e7816133b7565b845292820192908201906001016126d4565b600082601f830112612709578081fd5b815161271761263982613354565b81815291506020808301908481018184028601820187101561273857600080fd5b60005b848110156126875781518452928201929082019060010161273b565b60008083601f840112612768578182fd5b5081356001600160401b0381111561277e578182fd5b60208301915083602060a08302850101111561261457600080fd5b600082601f8301126127a9578081fd5b81516127b761263982613354565b8181529150602080830190848101818402860182018710156127d857600080fd5b60005b848110156126875781516127ee816133c5565b845292820192908201906001016127db565b600060208284031215612811578081fd5b61281b602061332e565b9151825250919050565b80516fffffffffffffffffffffffffffffffff811681146115fb57600080fd5b805164ffffffffff811681146115fb57600080fd5b80516115fb816133c5565b600060208284031215612876578081fd5b8135611c258161339f565b60008060008060008060008060008060008060c08d8f0312156128a2578788fd5b6001600160401b038d3511156128b6578788fd5b6128c38e8e358f016125d3565b909c509a506001600160401b0360208e013511156128df578788fd5b6128ef8e60208f01358f016125d3565b909a5098506001600160401b0360408e0135111561290b578788fd5b61291b8e60408f01358f016125d3565b90985096506001600160401b0360608e01351115612937578586fd5b6129478e60608f01358f016125d3565b90965094506001600160401b0360808e01351115612963578384fd5b6129738e60808f01358f01612757565b90945092506001600160401b0360a08e0135111561298f578081fd5b61299f8e60a08f01358f016125d3565b81935080925050509295989b509295989b509295989b565b600080600080600080600080600060a08a8c0312156129d4578283fd5b89356001600160401b03808211156129ea578485fd5b6129f68d838e016125d3565b909b50995060208c0135915080821115612a0e578485fd5b612a1a8d838e016125d3565b909950975060408c0135915080821115612a32578485fd5b612a3e8d838e016125d3565b909750955060608c01359150612a538261339f565b90935060808b01359080821115612a68578384fd5b818c0191508c601f830112612a7b578384fd5b813581811115612a89578485fd5b8d6020828501011115612a9a578485fd5b6020830194508093505050509295985092959850929598565b60008060008060008060008060006101208a8c031215612ad1578283fd5b89516001600160401b0380821115612ae7578485fd5b612af38d838e0161261b565b9a5060208c0151915080821115612b08578485fd5b612b148d838e016126f9565b995060408c0151915080821115612b29578485fd5b612b358d838e01612692565b985060608c0151915080821115612b4a578485fd5b612b568d838e016126f9565b975060808c0151915080821115612b6b578485fd5b612b778d838e016126f9565b965060a08c0151915080821115612b8c578485fd5b612b988d838e01612799565b955060c08c0151915080821115612bad578485fd5b612bb98d838e016126f9565b945060e08c0151915080821115612bce578384fd5b612bda8d838e016126f9565b93506101008c0151915080821115612bf0578283fd5b50612bfd8c828d01612692565b9150509295985092959850929598565b600060208284031215612c1e578081fd5b81516001600160401b03811115612c33578182fd5b612438848285016126f9565b600060208284031215612c50578081fd5b8135611c25816133b7565b600060208284031215612c6c578081fd5b8151611c25816133b7565b600060a08284031215612c88578081fd5b612c9260a061332e565b82358152602083013560208201526040830135612cae816133c5565b6040820152606083810135908201526080928301359281019290925250919050565b6000610180808385031215612ce3578182fd5b612cec8161332e565b9050612cf88484612800565b8152612d078460208501612825565b6020820152612d198460408501612825565b6040820152612d2b8460608501612825565b6060820152612d3d8460808501612825565b6080820152612d4f8460a08501612825565b60a0820152612d618460c08501612845565b60c0820152612d738460e085016125c8565b60e0820152610100612d87858286016125c8565b90820152610120612d9a858583016125c8565b90820152610140612dad858583016125c8565b90820152610160612dc08585830161285a565b908201529392505050565b600060208284031215612ddc578081fd5b5051919050565b600080600060608486031215612df7578081fd5b833592506020840135612e098161339f565b91506040840135612e198161339f565b809150509250925092565b600060208284031215612e35578081fd5b8151611c25816133c5565b6000815180845260208085019450808401835b83811015612e785781516001600160a01b031687529582019590820190600101612e53565b509495945050505050565b60008251612e95818460208701613373565b9190910192915050565b6001600160a01b0391909116815260200190565b6001600160a01b0392831681529116602082015260400190565b6001600160a01b039384168152919092166020820152604081019190915260600190565b6001600160a01b0394851681529290931660208301526040820152606081019190915260800190565b6001600160a01b0397881681529590961660208601526040850193909352606084019190915260ff16608083015260a082015260c081019190915260e00190565b6001600160a01b03929092168252602082015260400190565b6001600160a01b0393841681526020810192909252909116604082015260600190565b6001600160a01b03948516815260208101939093529216604082015261ffff909116606082015260800190565b901515815260200190565b6000602082528251806020840152612fee816040850160208701613373565b601f01601f19169190910160400192915050565b6020808252601b908201527f43414c4c45525f4d5553545f42455f4c454e44494e475f504f4f4c0000000000604082015260600190565b60208082526026908201527f4f776e61626c653a206e6577206f776e657220697320746865207a65726f206160408201526564647265737360d01b606082015260800190565b6020808252601b908201527f536166654d6174683a206164646974696f6e206f766572666c6f770000000000604082015260600190565b6020808252818101527f5361666545524332303a206c6f772d6c6576656c2063616c6c206661696c6564604082015260600190565b6020808252818101527f6d696e416d6f756e744f757420657863656564206d617820736c697070616765604082015260600190565b60208082526021908201527f536166654d6174683a206d756c7469706c69636174696f6e206f766572666c6f6040820152607760f81b606082015260800190565b6020808252818101527f4f776e61626c653a2063616c6c6572206973206e6f7420746865206f776e6572604082015260600190565b602080825260139082015272494e434f4e53495354454e545f504152414d5360681b604082015260600190565b6020808252602a908201527f5361666545524332303a204552433230206f7065726174696f6e20646964206e6040820152691bdd081cdd58d8d9595960b21b606082015260800190565b60208082526036908201527f5361666545524332303a20617070726f76652066726f6d206e6f6e2d7a65726f60408201527520746f206e6f6e2d7a65726f20616c6c6f77616e636560501b606082015260800190565b6020808252601f908201527f5361666545524332303a2063616c6c20746f206e6f6e2d636f6e747261637400604082015260600190565b90815260200190565b6000838252604060208301526124386040830184612e40565b600086825285602083015260a060408301526132db60a0830186612e40565b6001600160a01b0394909416606083015250608001529392505050565b600086825285602083015284604083015283606083015260a0608083015261332360a0830184612e40565b979650505050505050565b6040518181016001600160401b038111828210171561334c57600080fd5b604052919050565b60006001600160401b03821115613369578081fd5b5060209081020190565b60005b8381101561338e578181015183820152602001613376565b838111156121a55750506000910152565b6001600160a01b03811681146133b457600080fd5b50565b80151581146133b457600080fd5b60ff811681146133b457600080fdfea2646970667358221220eccfde4815dd00748c2a0712caffd77b6b87848583640348c81329fffa040f3d64736f6c634300060c0033",
  "immutableReferences": {
    "120": [
      {
        "length": 32,
        "start": 847
      },
      {
        "length": 32,
        "start": 4137
      },
      {
        "length": 32,
        "start": 4198
      },
      {
        "length": 32,
        "start": 4304
      },
      {
        "length": 32,
        "start": 6311
      },
      {
        "length": 32,
        "start": 7748
      },
      {
        "length": 32,
        "start": 7809
      },
      {
        "length": 32,
        "start": 7915
      }
    ],
    "123": [
      {
        "length": 32,
        "start": 930
      },
      {
        "length": 32,
        "start": 8645
      }
    ],
    "126": [
      {
        "length": 32,
        "start": 2912
      },
      {
        "length": 32,
        "start": 4431
      },
      {
        "length": 32,
        "start": 4675
      },
      {
        "length": 32,
        "start": 6132
      },
      {
        "length": 32,
        "start": 6185
      },
      {
        "length": 32,
        "start": 6589
      },
      {
        "length": 32,
        "start": 8042
      },
      {
        "length": 32,
        "start": 8283
      }
    ],
    "5210": [
      {
        "length": 32,
        "start": 883
      }
    ],
    "5213": [
      {
        "length": 32,
        "start": 1119
      },
      {
        "length": 32,
        "start": 1845
      },
      {
        "length": 32,
        "start": 2567
      },
      {
        "length": 32,
        "start": 2657
      },
      {
        "length": 32,
        "start": 2711
      },
      {
        "length": 32,
        "start": 3515
      },
      {
        "length": 32,
        "start": 3575
      },
      {
        "length": 32,
        "start": 3640
      },
      {
        "length": 32,
        "start": 3826
      },
      {
        "length": 32,
        "start": 3886
      },
      {
        "length": 32,
        "start": 5493
      },
      {
        "length": 32,
        "start": 5818
      }
    ]
  },
  "source": "// SPDX-License-Identifier: agpl-3.0\npragma solidity 0.6.12;\npragma experimental ABIEncoderV2;\n\nimport {BaseUniswapAdapter} from './BaseUniswapAdapter.sol';\nimport {ILendingPoolAddressesProvider} from '../interfaces/ILendingPoolAddressesProvider.sol';\nimport {IUniswapV2Router02} from '../interfaces/IUniswapV2Router02.sol';\nimport {IERC20} from '../dependencies/openzeppelin/contracts/IERC20.sol';\n\n/**\n * @title UniswapLiquiditySwapAdapter\n * @notice Uniswap V2 Adapter to swap liquidity.\n * @author Aave\n **/\ncontract UniswapLiquiditySwapAdapter is BaseUniswapAdapter {\n  struct PermitParams {\n    uint256[] amount;\n    uint256[] deadline;\n    uint8[] v;\n    bytes32[] r;\n    bytes32[] s;\n  }\n\n  struct SwapParams {\n    address[] assetToSwapToList;\n    uint256[] minAmountsToReceive;\n    bool[] swapAllBalance;\n    PermitParams permitParams;\n    bool[] useEthPath;\n  }\n\n  constructor(\n    ILendingPoolAddressesProvider addressesProvider,\n    IUniswapV2Router02 uniswapRouter,\n    address wethAddress\n  ) public BaseUniswapAdapter(addressesProvider, uniswapRouter, wethAddress) {}\n\n  /**\n   * @dev Swaps the received reserve amount from the flash loan into the asset specified in the params.\n   * The received funds from the swap are then deposited into the protocol on behalf of the user.\n   * The user should give this contract allowance to pull the ATokens in order to withdraw the underlying asset and\n   * repay the flash loan.\n   * @param assets Address of asset to be swapped\n   * @param amounts Amount of the asset to be swapped\n   * @param premiums Fee of the flash loan\n   * @param initiator Address of the user\n   * @param params Additional variadic field to include extra params. Expected parameters:\n   *   address[] assetToSwapToList List of the addresses of the reserve to be swapped to and deposited\n   *   uint256[] minAmountsToReceive List of min amounts to be received from the swap\n   *   bool[] swapAllBalance Flag indicating if all the user balance should be swapped\n   *   uint256[] permitAmount List of amounts for the permit signature\n   *   uint256[] deadline List of deadlines for the permit signature\n   *   uint8[] v List of v param for the permit signature\n   *   bytes32[] r List of r param for the permit signature\n   *   bytes32[] s List of s param for the permit signature\n   */\n  function executeOperation(\n    address[] calldata assets,\n    uint256[] calldata amounts,\n    uint256[] calldata premiums,\n    address initiator,\n    bytes calldata params\n  ) external override returns (bool) {\n    require(msg.sender == address(LENDING_POOL), 'CALLER_MUST_BE_LENDING_POOL');\n\n    SwapParams memory decodedParams = _decodeParams(params);\n\n    require(\n      assets.length == decodedParams.assetToSwapToList.length &&\n        assets.length == decodedParams.minAmountsToReceive.length &&\n        assets.length == decodedParams.swapAllBalance.length &&\n        assets.length == decodedParams.permitParams.amount.length &&\n        assets.length == decodedParams.permitParams.deadline.length &&\n        assets.length == decodedParams.permitParams.v.length &&\n        assets.length == decodedParams.permitParams.r.length &&\n        assets.length == decodedParams.permitParams.s.length &&\n        assets.length == decodedParams.useEthPath.length,\n      'INCONSISTENT_PARAMS'\n    );\n\n    for (uint256 i = 0; i < assets.length; i++) {\n      _swapLiquidity(\n        assets[i],\n        decodedParams.assetToSwapToList[i],\n        amounts[i],\n        premiums[i],\n        initiator,\n        decodedParams.minAmountsToReceive[i],\n        decodedParams.swapAllBalance[i],\n        PermitSignature(\n          decodedParams.permitParams.amount[i],\n          decodedParams.permitParams.deadline[i],\n          decodedParams.permitParams.v[i],\n          decodedParams.permitParams.r[i],\n          decodedParams.permitParams.s[i]\n        ),\n        decodedParams.useEthPath[i]\n      );\n    }\n\n    return true;\n  }\n\n  struct SwapAndDepositLocalVars {\n    uint256 i;\n    uint256 aTokenInitiatorBalance;\n    uint256 amountToSwap;\n    uint256 receivedAmount;\n    address aToken;\n  }\n\n  /**\n   * @dev Swaps an amount of an asset to another and deposits the new asset amount on behalf of the user without using\n   * a flash loan. This method can be used when the temporary transfer of the collateral asset to this contract\n   * does not affect the user position.\n   * The user should give this contract allowance to pull the ATokens in order to withdraw the underlying asset and\n   * perform the swap.\n   * @param assetToSwapFromList List of addresses of the underlying asset to be swap from\n   * @param assetToSwapToList List of addresses of the underlying asset to be swap to and deposited\n   * @param amountToSwapList List of amounts to be swapped. If the amount exceeds the balance, the total balance is used for the swap\n   * @param minAmountsToReceive List of min amounts to be received from the swap\n   * @param permitParams List of struct containing the permit signatures\n   *   uint256 permitAmount Amount for the permit signature\n   *   uint256 deadline Deadline for the permit signature\n   *   uint8 v param for the permit signature\n   *   bytes32 r param for the permit signature\n   *   bytes32 s param for the permit signature\n   * @param useEthPath true if the swap needs to occur using ETH in the routing, false otherwise\n   */\n  function swapAndDeposit(\n    address[] calldata assetToSwapFromList,\n    address[] calldata assetToSwapToList,\n    uint256[] calldata amountToSwapList,\n    uint256[] calldata minAmountsToReceive,\n    PermitSignature[] calldata permitParams,\n    bool[] calldata useEthPath\n  ) external {\n    require(\n      assetToSwapFromList.length == assetToSwapToList.length &&\n        assetToSwapFromList.length == amountToSwapList.length &&\n        assetToSwapFromList.length == minAmountsToReceive.length &&\n        assetToSwapFromList.length == permitParams.length,\n      'INCONSISTENT_PARAMS'\n    );\n\n    SwapAndDepositLocalVars memory vars;\n\n    for (vars.i = 0; vars.i < assetToSwapFromList.length; vars.i++) {\n      vars.aToken = _getReserveData(assetToSwapFromList[vars.i]).aTokenAddress;\n\n      vars.aTokenInitiatorBalance = IERC20(vars.aToken).balanceOf(msg.sender);\n      vars.amountToSwap = amountToSwapList[vars.i] > vars.aTokenInitiatorBalance\n        ? vars.aTokenInitiatorBalance\n        : amountToSwapList[vars.i];\n\n      _pullAToken(\n        assetToSwapFromList[vars.i],\n        vars.aToken,\n        msg.sender,\n        vars.amountToSwap,\n        permitParams[vars.i]\n      );\n\n      vars.receivedAmount = _swapExactTokensForTokens(\n        assetToSwapFromList[vars.i],\n        assetToSwapToList[vars.i],\n        vars.amountToSwap,\n        minAmountsToReceive[vars.i],\n        useEthPath[vars.i]\n      );\n\n      // Deposit new reserve\n      IERC20(assetToSwapToList[vars.i]).safeApprove(address(LENDING_POOL), 0);\n      IERC20(assetToSwapToList[vars.i]).safeApprove(address(LENDING_POOL), vars.receivedAmount);\n      LENDING_POOL.deposit(assetToSwapToList[vars.i], vars.receivedAmount, msg.sender, 0);\n    }\n  }\n\n  /**\n   * @dev Swaps an `amountToSwap` of an asset to another and deposits the funds on behalf of the initiator.\n   * @param assetFrom Address of the underlying asset to be swap from\n   * @param assetTo Address of the underlying asset to be swap to and deposited\n   * @param amount Amount from flash loan\n   * @param premium Premium of the flash loan\n   * @param minAmountToReceive Min amount to be received from the swap\n   * @param swapAllBalance Flag indicating if all the user balance should be swapped\n   * @param permitSignature List of struct containing the permit signature\n   * @param useEthPath true if the swap needs to occur using ETH in the routing, false otherwise\n   */\n   \n  struct SwapLiquidityLocalVars {\n   address aToken;\n   uint256 aTokenInitiatorBalance;\n   uint256 amountToSwap;\n   uint256 receivedAmount;\n   uint256 flashLoanDebt;\n   uint256 amountToPull;\n  }\n  \n  function _swapLiquidity(\n    address assetFrom,\n    address assetTo,\n    uint256 amount,\n    uint256 premium,\n    address initiator,\n    uint256 minAmountToReceive,\n    bool swapAllBalance,\n    PermitSignature memory permitSignature,\n    bool useEthPath\n  ) internal {\n    \n    SwapLiquidityLocalVars memory vars;\n    \n    vars.aToken = _getReserveData(assetFrom).aTokenAddress;\n\n    vars.aTokenInitiatorBalance = IERC20(vars.aToken).balanceOf(initiator);\n    vars.amountToSwap =\n      swapAllBalance && vars.aTokenInitiatorBalance.sub(premium) <= amount\n        ? vars.aTokenInitiatorBalance.sub(premium)\n        : amount;\n\n    vars.receivedAmount =\n      _swapExactTokensForTokens(assetFrom, assetTo, vars.amountToSwap, minAmountToReceive, useEthPath);\n\n    // Deposit new reserve\n    IERC20(assetTo).safeApprove(address(LENDING_POOL), 0);\n    IERC20(assetTo).safeApprove(address(LENDING_POOL), vars.receivedAmount);\n    LENDING_POOL.deposit(assetTo, vars.receivedAmount, initiator, 0);\n\n    vars.flashLoanDebt = amount.add(premium);\n    vars.amountToPull = vars.amountToSwap.add(premium);\n\n    _pullAToken(assetFrom, vars.aToken, initiator, vars.amountToPull, permitSignature);\n\n    // Repay flash loan\n    IERC20(assetFrom).safeApprove(address(LENDING_POOL), 0);\n    IERC20(assetFrom).safeApprove(address(LENDING_POOL), vars.flashLoanDebt);\n  }\n\n  /**\n   * @dev Decodes the information encoded in the flash loan params\n   * @param params Additional variadic field to include extra params. Expected parameters:\n   *   address[] assetToSwapToList List of the addresses of the reserve to be swapped to and deposited\n   *   uint256[] minAmountsToReceive List of min amounts to be received from the swap\n   *   bool[] swapAllBalance Flag indicating if all the user balance should be swapped\n   *   uint256[] permitAmount List of amounts for the permit signature\n   *   uint256[] deadline List of deadlines for the permit signature\n   *   uint8[] v List of v param for the permit signature\n   *   bytes32[] r List of r param for the permit signature\n   *   bytes32[] s List of s param for the permit signature\n   *   bool[] useEthPath true if the swap needs to occur using ETH in the routing, false otherwise\n   * @return SwapParams struct containing decoded params\n   */\n  function _decodeParams(bytes memory params) internal pure returns (SwapParams memory) {\n    (\n      address[] memory assetToSwapToList,\n      uint256[] memory minAmountsToReceive,\n      bool[] memory swapAllBalance,\n      uint256[] memory permitAmount,\n      uint256[] memory deadline,\n      uint8[] memory v,\n      bytes32[] memory r,\n      bytes32[] memory s,\n      bool[] memory useEthPath\n    ) =\n      abi.decode(\n        params,\n        (address[], uint256[], bool[], uint256[], uint256[], uint8[], bytes32[], bytes32[], bool[])\n      );\n\n    return\n      SwapParams(\n        assetToSwapToList,\n        minAmountsToReceive,\n        swapAllBalance,\n        PermitParams(permitAmount, deadline, v, r, s),\n        useEthPath\n      );\n  }\n}",
  "sourcePath": "/home/conjohn/code/liquiditybot/contracts/aave/adapters/UniswapLiquiditySwapAdapter.sol",
  "compiler": {
    "name": "solc",
    "version": "0.6.12+commit.27d51765.Emscripten.clang"
  },
  "schemaVersion": "3.3.3",
  "updatedAt": "2021-01-19T17:51:24.259Z",
  "devdoc": {
    "author": "Aave*",
    "kind": "dev",
    "methods": {
      "executeOperation(address[],uint256[],uint256[],address,bytes)": {
        "details": "Swaps the received reserve amount from the flash loan into the asset specified in the params. The received funds from the swap are then deposited into the protocol on behalf of the user. The user should give this contract allowance to pull the ATokens in order to withdraw the underlying asset and repay the flash loan.",
        "params": {
          "amounts": "Amount of the asset to be swapped",
          "assets": "Address of asset to be swapped",
          "initiator": "Address of the user",
          "params": "Additional variadic field to include extra params. Expected parameters:   address[] assetToSwapToList List of the addresses of the reserve to be swapped to and deposited   uint256[] minAmountsToReceive List of min amounts to be received from the swap   bool[] swapAllBalance Flag indicating if all the user balance should be swapped   uint256[] permitAmount List of amounts for the permit signature   uint256[] deadline List of deadlines for the permit signature   uint8[] v List of v param for the permit signature   bytes32[] r List of r param for the permit signature   bytes32[] s List of s param for the permit signature",
          "premiums": "Fee of the flash loan"
        }
      },
      "getAmountsIn(uint256,address,address)": {
        "details": "Returns the minimum input asset amount required to buy the given output asset amount and the prices",
        "params": {
          "amountOut": "Amount of reserveOut",
          "reserveIn": "Address of the asset to be swap from",
          "reserveOut": "Address of the asset to be swap to"
        },
        "returns": {
          "_0": "uint256 Amount in of the reserveIn",
          "_1": "uint256 The price of in amount denominated in the reserveOut currency (18 decimals)",
          "_2": "uint256 In amount of reserveIn value denominated in USD (8 decimals)",
          "_3": "uint256 Out amount of reserveOut value denominated in USD (8 decimals)"
        }
      },
      "getAmountsOut(uint256,address,address)": {
        "details": "Given an input asset amount, returns the maximum output amount of the other asset and the prices",
        "params": {
          "amountIn": "Amount of reserveIn",
          "reserveIn": "Address of the asset to be swap from",
          "reserveOut": "Address of the asset to be swap to"
        },
        "returns": {
          "_0": "uint256 Amount out of the reserveOut",
          "_1": "uint256 The price of out amount denominated in the reserveIn currency (18 decimals)",
          "_2": "uint256 In amount of reserveIn value denominated in USD (8 decimals)",
          "_3": "uint256 Out amount of reserveOut value denominated in USD (8 decimals)"
        }
      },
      "owner()": {
        "details": "Returns the address of the current owner."
      },
      "renounceOwnership()": {
        "details": "Leaves the contract without owner. It will not be possible to call `onlyOwner` functions anymore. Can only be called by the current owner. NOTE: Renouncing ownership will leave the contract without an owner, thereby removing any functionality that is only available to the owner."
      },
      "rescueTokens(address)": {
        "details": "Emergency rescue for token stucked on this contract, as failsafe mechanism - Funds should never remain in this contract more time than during transactions - Only callable by the owner*"
      },
      "swapAndDeposit(address[],address[],uint256[],uint256[],(uint256,uint256,uint8,bytes32,bytes32)[],bool[])": {
        "details": "Swaps an amount of an asset to another and deposits the new asset amount on behalf of the user without using a flash loan. This method can be used when the temporary transfer of the collateral asset to this contract does not affect the user position. The user should give this contract allowance to pull the ATokens in order to withdraw the underlying asset and perform the swap.",
        "params": {
          "amountToSwapList": "List of amounts to be swapped. If the amount exceeds the balance, the total balance is used for the swap",
          "assetToSwapFromList": "List of addresses of the underlying asset to be swap from",
          "assetToSwapToList": "List of addresses of the underlying asset to be swap to and deposited",
          "minAmountsToReceive": "List of min amounts to be received from the swap",
          "permitParams": "List of struct containing the permit signatures   uint256 permitAmount Amount for the permit signature   uint256 deadline Deadline for the permit signature   uint8 v param for the permit signature   bytes32 r param for the permit signature   bytes32 s param for the permit signature",
          "useEthPath": "true if the swap needs to occur using ETH in the routing, false otherwise"
        }
      },
      "transferOwnership(address)": {
        "details": "Transfers ownership of the contract to a new account (`newOwner`). Can only be called by the current owner."
      }
    },
    "title": "UniswapLiquiditySwapAdapter",
    "version": 1
  },
  "userdoc": {
    "kind": "user",
    "methods": {},
    "notice": "Uniswap V2 Adapter to swap liquidity.",
    "version": 1
  }
}